:020000040800F2
:1000000000000320B56F000815250008172500081B
:10001000192500081B2500081D2500080000000008
:10002000000000000000000000000000016800085F
:100030001F25000800000000A16800089B6300085D
:1000400005700008057000080570000805700008BC
:1000500005700008057000080570000805700008AC
:1000600005700008057000080570000821250008CB
:1000700031250008057000084125000805700008BA
:10008000057000080570000805700008057000087C
:10009000057000080570000805700008057000086C
:1000A000057000085125000805700008057000085B
:1000B000612500087125000805700008057000081A
:1000C000057000080570000805700008057000083C
:1000D00005700008057000080570000881250008FB
:1000E000057000080570000805700008057000081C
:1000F00005700008057000080570000891250008CB
:100100000570000805700008A125000805700008AA
:1001100005700008057000080570000805700008EB
:1001200005700008057000080570000805700008DB
:1001300005700008057000080570000805700008CB
:1001400005700008057000080570000805700008BB
:1001500005700008057000080570000805700008AB
:10016000057000080570000805700008057000089B
:100170000570000805700008057000080000000008
:10018000057000080570000805700008057000087B
:10019000057000080570000805700008057000086B
:0C01A000057000080570000805700008DC
:1001B00010B5054C237833B9044B13B10448AFF3A1
:1001C00000800123237010BDA0010020000000006A
:1001D000A43E010808B5034B1BB103490348AFF324
:1001E000008008BD00000000A4010020A43E01081A
:1001F00001F0FF01102A2BDB10F0070F08D010F8D8
:10020000013B013A8B422DD010F0070F42B3F6D1DB
:10021000F0B441EA012141EA014122F007047FF0F4
:1002200000070023F0E80256083C85EA010586EA4B
:10023000010685FA47F5A3FA87F586FA47F6A5FA87
:1002400087F68EB9EED1F0BC01F0FF0102F0070293
:1002500032B110F8013B013A83EA010313B1F8D13E
:100260000020704701387047002D06BF354603381F
:10027000073815F0010F07D1013015F4807F02BF58
:10028000013015F4C03F0130F0BC0138704700BFA9
:1002900081F0004102E000BF83F0004330B54FEA37
:1002A00041044FEA430594EA050F08BF90EA020FA4
:1002B0001FBF54EA000C55EA020C7FEA645C7FEA37
:1002C000655C00F0E2804FEA5454D4EB5555B8BF5A
:1002D0006D420CDD2C4480EA020281EA030382EACB
:1002E000000083EA010180EA020281EA0303362D5D
:1002F00088BF30BD11F0004F4FEA01314FF4801C30
:100300004CEA113102D0404261EB410113F0004F41
:100310004FEA03334CEA133302D0524263EB4303F8
:1003200094EA050F00F0A780A4F10104D5F1200E96
:100330000DDB02FA0EFC22FA05F2801841F10001F1
:1003400003FA0EF2801843FA05F359410EE0A5F1C5
:1003500020050EF1200E012A03FA0EFC28BF4CF0F6
:10036000020C43FA05F3C01851EBE37101F00045AC
:1003700007D54FF0000EDCF1000C7EEB00006EEBB9
:100380000101B1F5801F1BD3B1F5001F0CD3490843
:100390005FEA30004FEA3C0C04F101044FEA44529A
:1003A00012F5800F80F09A80BCF1004F08BF5FEA21
:1003B000500C50F1000041EB045141EA050130BD01
:1003C0005FEA4C0C404141EB0101013C28BFB1F513
:1003D000801FE9D291F0000F04BF01460020B1FA5E
:1003E00081F308BF2033A3F10B03B3F120020CDA31
:1003F0000C3208DD02F1140CC2F10C0201FA0CF00F
:1004000021FA02F10CE002F11402D8BFC2F1200C73
:1004100001FA02F120FA0CFCDCBF41EA0C01904029
:10042000E41AA2BF01EB0451294330BD6FEA040472
:100430001F3C1CDA0C340EDC04F11404C4F120025D
:1004400020FA04F001FA02F340EA030021FA04F36F
:1004500045EA030130BDC4F10C04C4F1200220FAC6
:1004600002F001FA04F340EA0300294630BD21FA04
:1004700004F0294630BD94F0000F83F4801306BFCA
:1004800081F480110134013D4EE77FEA645C18BFBE
:100490007FEA655C29D094EA050F08BF90EA020F55
:1004A00005D054EA000C04BF1946104630BD91EA4D
:1004B000030F1EBF0021002030BD5FEA545C05D150
:1004C0004000494128BF41F0004130BD14F580048F
:1004D0003CBF01F5801130BD01F0004545F0FE4103
:1004E00041F470014FF0000030BD7FEA645C1ABF38
:1004F000194610467FEA655C1CBF0B46024650EA6F
:10050000013406BF52EA033591EA030F41F400219A
:1005100030BD00BF90F0000F04BF0021704730B520
:100520004FF4806404F132044FF000054FF00001F5
:1005300050E700BF90F0000F04BF0021704730B5B6
:100540004FF4806404F1320410F0004548BF40428B
:100550004FF000013EE700BF42004FEAE2014FEAE0
:1005600031014FEA02701FBF12F07F4393F07F4FBB
:1005700081F06051704732F07F4208BF704793F0BE
:100580007F4F04BF41F40021704730B54FF46074D1
:1005900001F0004521F000411CE700BF50EA0102D4
:1005A00008BF704730B54FF000050AE050EA01027D
:1005B00008BF704730B511F0004502D5404261EBED
:1005C00041014FF4806404F132045FEA915C3FF42E
:1005D000D8AE4FF003025FEADC0C18BF03325FEACB
:1005E000DC0C18BF033202EBDC02C2F1200300FA7C
:1005F00003FC20FA02F001FA03FE40EA0E0021FAA1
:1006000002F11444BDE600BF70B54FF0FF0C4CF48E
:10061000E06C1CEA11541DBF1CEA135594EA0C0F40
:1006200095EA0C0F00F0DEF82C4481EA030621EA7B
:100630004C5123EA4C5350EA013518BF52EA0335B6
:1006400041F4801143F4801338D0A0FB02CE4FF068
:100650000005E1FB02E506F00042E0FB03E54FF098
:100660000006E1FB03569CF0000F18BF4EF0010E90
:10067000A4F1FF04B6F5007F64F5407404D25FEA8C
:100680004E0E6D4146EB060642EAC62141EA55513F
:100690004FEAC52040EA5E504FEACE2EB4F1FD0C81
:1006A00088BFBCF5E06F1ED8BEF1004F08BF5FEAFF
:1006B000500E50F1000041EB045170BD06F00046B1
:1006C00046EA010140EA020081EA0301B4EB5C045E
:1006D000C2BFD4EB0C0541EA045170BD41F4801156
:1006E0004FF0000E013C00F3AB8014F1360FDEBF7B
:1006F000002001F0004170BDC4F10004203C35DA57
:100700000C341BDC04F11404C4F1200500FA05F3D9
:1007100020FA04F001FA05F240EA020001F000427A
:1007200021F0004110EBD37021FA04F642EB0601F0
:100730005EEA430E08BF20EAD37070BDC4F10C041A
:10074000C4F1200500FA04F320FA05F001FA04F2DE
:1007500040EA020001F0004110EBD37041F10001CA
:100760005EEA430E08BF20EAD37070BDC4F12005D5
:1007700000FA05F24EEA020E20FA04F301FA05F23D
:1007800043EA020321FA04F001F0004121FA04F2E5
:1007900020EA020000EBD3705EEA430E08BF20EAB5
:1007A000D37070BD94F0000F0FD101F000464000EF
:1007B00041EB010111F4801F08BF013CF7D041EA71
:1007C000060195F0000F18BF704703F00046520075
:1007D00043EB030313F4801F08BF013DF7D043EA46
:1007E0000603704794EA0C0F0CEA135518BF95EAFC
:1007F0000C0F0CD050EA410618BF52EA4306D1D183
:1008000081EA030101F000414FF0000070BD50EAA1
:10081000410606BF1046194652EA430619D094EA2B
:100820000C0F02D150EA013613D195EA0C0F05D115
:1008300052EA03361CBF104619460AD181EA030169
:1008400001F0004141F0FE4141F470014FF0000021
:1008500070BD41F0FE4141F4780170BD70B54FF0BC
:10086000FF0C4CF4E06C1CEA11541DBF1CEA13553C
:1008700094EA0C0F95EA0C0F00F0A7F8A4EB05041E
:1008800081EA030E52EA03354FEA013100F0888015
:100890004FEA03334FF0805545EA131343EA1263DE
:1008A0004FEA022245EA111545EA10654FEA002693
:1008B0000EF000419D4208BF964244F1FD0404F54C
:1008C000407402D25B084FEA3202B61A65EB0305A8
:1008D0005B084FEA32024FF480104FF4002CB6EB65
:1008E000020E75EB030E22BFB61A754640EA0C00E5
:1008F0005B084FEA3202B6EB020E75EB030E22BF25
:10090000B61A754640EA5C005B084FEA3202B6EB65
:10091000020E75EB030E22BFB61A754640EA9C0024
:100920005B084FEA3202B6EB020E75EB030E22BFF4
:10093000B61A754640EADC0055EA060E18D04FEAB2
:10094000051545EA16754FEA06164FEAC30343EA52
:1009500052734FEAC2025FEA1C1CC0D111F4801F1F
:100960000BD141EA00014FF000004FF0004CB6E718
:1009700011F4801F04BF01430020B4F1FD0C88BFB7
:10098000BCF5E06F3FF6AFAEB5EB030C04BFB6EBC2
:10099000020C5FEA500C50F1000041EB045170BDB5
:1009A0000EF0004E4EEA113114EB5C04C2BFD4EBE2
:1009B0000C0541EA045170BD41F480114FF0000E66
:1009C000013C90E645EA060E8DE60CEA135594EAE2
:1009D0000C0F08BF95EA0C0F3FF43BAF94EA0C0FE5
:1009E0000AD150EA01347FF434AF95EA0C0F7FF45A
:1009F00025AF104619462CE795EA0C0F06D152EAAE
:100A000003353FF4FDAE1046194622E750EA410691
:100A100018BF52EA43067FF4C5AE50EA41047FF4A2
:100A20000DAF52EA43057FF4EBAE12E74FF0FF3C07
:100A300006E000BF4FF0010C02E000BF4FF0010CD8
:100A40004DF804CD4FEA410C7FEA6C5C4FEA430C51
:100A500018BF7FEA6C5C1BD001B050EA410C0CBFA0
:100A600052EA430C91EA030F02BF90EA020F002002
:100A7000704710F1000F91EA030F58BF994208BF69
:100A800090422CBFD8176FEAE37040F00100704726
:100A90004FEA410C7FEA6C5C02D150EA013C07D17D
:100AA0004FEA430C7FEA6C5CD6D152EA033CD3D0C8
:100AB0005DF8040B704700BF8446104662468C46C2
:100AC0001946634600E000BF01B5FFF7B7FF0028F5
:100AD00048BF10F1000F01BD4DF808EDFFF7F4FF1E
:100AE0000CBF012000205DF808FB00BF4DF808EDA9
:100AF000FFF7EAFF34BF012000205DF808FB00BFCC
:100B00004DF808EDFFF7E0FF94BF012000205DF8ED
:100B100008FB00BF4DF808EDFFF7CEFF94BF0120A2
:100B200000205DF808FB00BF4DF808EDFFF7C4FF9B
:100B300034BF012000205DF808FB00BF4FEA4102EE
:100B400012F5001215D211D56FF47873B3EB62521F
:100B500012D94FEAC12343F0004343EA505311F046
:100B6000004F23FA02F018BF404270474FF00000D8
:100B7000704750EA013005D111F0004008BF6FF016
:100B8000004070474FF00000704700BF7BB972B95A
:100B90000029BEBF00204FF0004106E008BF00283A
:100BA0001CBF6FF000414FF0FF3000F0BBB9ADF15A
:100BB000080C6DE904CE002909DB002B1ADB00F0DC
:100BC0004DF8DDF804E0DDE9022304B0704740424F
:100BD00061EB4101002B1BDB00F040F8DDF804E085
:100BE000DDE9022304B0404261EB4101524263EB74
:100BF00043037047524263EB430300F02FF8DDF8E4
:100C000004E0DDE9022304B0404261EB410170479A
:100C1000524263EB430300F021F8DDF804E0DDE924
:100C2000022304B0524263EB4303704753B94AB9FD
:100C3000002908BF00281CBF4FF0FF314FF0FF30E4
:100C400000F070B9ADF1080C6DE904CE00F006F8C3
:100C5000DDF804E0DDE9022304B070472DE9F04738
:100C6000089E0D4604460F46002B4AD18A42944600
:100C700065D9B2FA82F343B102FA03FCC3F1200250
:100C80009F4020FA02F217439C404FEA1C4E1FFA85
:100C90008CF5B7FBFEF1220C0EFB117742EA0742FE
:100CA00001FB05F090420AD91CEB020201F1FF376B
:100CB00080F01C81904240F2198102396244121A7C
:100CC000A4B2B2FBFEF00EFB102244EA024400FB89
:100CD00005F5A5420AD91CEB040400F1FF3280F0AF
:100CE0000781A54240F204816444023840EA014091
:100CF000641B00211EB1DC400023C6E90043BDE8AF
:100D0000F0878B4208D9002E00F0ED800021C6E963
:100D100000050846BDE8F087B3FA83F1002949D100
:100D2000AB4202D3824200F2F880841A65EB0302E0
:100D300001201746002EE2D0C6E90047DFE702B9DE
:100D4000FFDEB2FA82F3002B40F090808A1A4FEA5D
:100D50001C471FFA8CFE0121B2FBF7F507FB15209B
:100D6000220C42EA00420EFB05F0904208D91CEB2F
:100D7000020205F1FF3802D2904200F2CB804546D4
:100D8000121AA4B2B2FBF7F007FB102244EA0244A5
:100D90000EFB00FEA64508D91CEB040400F1FF324F
:100DA00002D2A64500F2BB801046A4EB0E0440EA36
:100DB00005409FE7C1F120078B4022FA07FC4CEA6F
:100DC000030C05FA01F420FA07F3FD404FEA1C4931
:100DD0002343B5FBF9F81FFA8CFE09FB18551C0CD0
:100DE00044EA054408FB0EF5A54202FA01F200FAB6
:100DF00001F00BD91CEB040408F1FF3A80F0888065
:100E0000A54240F28580A8F102086444641B9DB2AB
:100E1000B4FBF9F309FB134445EA044403FB0EFE5B
:100E2000A64508D91CEB040403F1FF356CD2A64596
:100E30006AD9023B644443EA0843A3FB0295A4EB4E
:100E40000E04AC42C846AE4656D353D056B1B0EBB2
:100E5000080264EB0E0404FA07F7CA40CC401743BB
:100E6000C6E9007418460021BDE8F087C3F12001EF
:100E700002FA03FC20FA01F225FA01F19D402A430F
:100E80004FEA1C471FFA8CFEB1FBF7F007FB101569
:100E9000110C41EA054100FB0EF58D4204FA03F402
:100EA00008D91CEB010100F1FF382FD28D422DD95A
:100EB00002386144491B92B2B1FBF7F507FB1511EB
:100EC00042EA014205FB0EF1914208D91CEB0202F5
:100ED00005F1FF3816D2914214D9023D6244521AEC
:100EE00045EA004138E73146304608E73946E6E64C
:100EF0001046FBE64845A9D2B9EB020865EB0C0E9B
:100F0000013BA3E74546EAE72B4694E74046D1E795
:100F1000D0467BE7023D624432E708460AE7644474
:100F2000023842E7704700BF10F8012B11F8013B6F
:100F3000012A28BF9A42F7D0D01A7047034613F807
:100F4000012B002AFBD1181A0138704710B514463E
:100F5000134692B2034803F008FB08B9204610BDBF
:100F60000020FCE71433002010B5044602680A4B49
:100F70009A4204D02268094B9A4203D010BD02F075
:100F800013FBF7E7064B1B68012BF7D1054A1368E3
:100F900001331360F2E700BF00000140000400408D
:100FA000C0010020BC01002072B6FEE700B595B07C
:100FB0003022002108A806F03EF900230393049391
:100FC0000593069307930193234A116C41F08051D6
:100FD0001164126C02F080520192019A02931F4B2D
:100FE0001A6842F440421A601B6803F440430293BB
:100FF000029B012308934FF48033099302230E933D
:101000004FF480020F92082210924FF4B4721192A2
:1010100012930423139308A801F038FBB0B902F02F
:1010200013FAA8B90F230393022304930023059313
:101030004FF4A05306934FF480530793052103A860
:1010400001F08EFD30B915B05DF804FBFFF7ACFF81
:10105000FFF7AAFFFFF7A8FF00380240007000402A
:1010600008B502F087FAFFF7A1FF00F06FF800F073
:1010700049FE00F093FE00F0B3FF01F04DF901F0DE
:10108000A1F901F01FF800F0E3FF00F06DFE254824
:1010900002F0B4FB244C204602F0B0FB00212046B5
:1010A00002F076FF214C204602F0A8FB00212046EA
:1010B00002F06EFF00211E4802F0ECFF00211D48E7
:1010C00002F0E8FF4FF6FF732F221B491B4803F085
:1010D0004CFA1B4C00224FF48051204601F03FFF98
:1010E00000224FF40051204601F039FF00224FF456
:1010F0008041204601F033FF00220421204601F008
:101100002EFF002280210F4801F029FF0022082134
:101110000D4801F024FF05F04DF900F047F905F006
:101120005BF9FEE7C4340020EC33002034340020A7
:10113000A43300207C340020000000201433002061
:1011400000140240000C0240001002402DE9F04F54
:101150008FB0002409940A940B940C940D9401947C
:101160008B4B1A6B42F010021A631A6B02F01002DA
:101170000192019A02941A6B42F004021A631A6BEC
:1011800002F004020292029A03941A6B42F02002C7
:101190001A631A6B02F020020392039A04941A6BEA
:1011A00042F080021A631A6B02F080020492049AE1
:1011B00005941A6B42F001021A631A6B02F00102E5
:1011C0000592059A06941A6B42F002021A631A6B92
:1011D00002F002020692069A07941A6B42F0080285
:1011E0001A631A6B02F008020792079A08941A6BA6
:1011F00042F040021A631B6B03F040030893089B04
:10120000644F22460821384601F0A9FE224647F2E3
:101210000401614801F0A3FEDFF884A1224644F6F0
:101220008101504601F09BFEDFF878812246402183
:10123000404601F094FE22468021584801F08FFE7E
:101240000823099301250A950B9502260C9609A9F6
:10125000384601F079FD4FF4005309934FF4881399
:101260000A930B94DFF840B109A9584601F06CFDD0
:1012700046F2040309930A950B950C9609A9464872
:1012800001F062FD322309930A960B9403270C9711
:101290004FF00B09CDF8349009A9584601F054FDE0
:1012A000862309930A960B940C97CDF83490ABF5EE
:1012B000006B09A9584601F047FD44F281030993E8
:1012C0000A950B940C9409A9504601F03DFD4FF48A
:1012D000805309930A950B940C9409A92E4801F0A8
:1012E00033FD4FF4006309930A950B940C9709A9F9
:1012F000504601F029FD4FF4005309930A960B94D0
:101300000C97CDF8349009A9504601F01DFD4023FB
:1013100009930A950B940C9409A9404601F014FD19
:101320004FF0800ACDF824A00A940B9409A94046F6
:1013300001F00AFD4FF4E85309930A960B940C97B9
:101340000A230D9309A9584601F0FEFC4FF40073DF
:1013500009930A940B9409A9584601F0F5FCCDF8BD
:1013600024A00A950B950C9609A90C4801F0ECFCF9
:101370004FF4205309930A960B940C97CDF83490B0
:1013800009A9404601F0E0FC0FB0BDE8F08F00BFB6
:10139000003802400010024000140240000C0240DD
:1013A00000040240001802400008024008B5044A48
:1013B0000021044805F02CF8034B186008BD00BF5D
:1013C000783F0108911600083831002010B54638E2
:1013D0000C2814D8DFE800F007131313131321139C
:1013E000131413132E001A4C01224FF4805120467F
:1013F00001F0B5FD00220421204601F0B0FD10BD32
:10140000134C00224FF48051204601F0A8FD012228
:101410000421204601F0A3FDF1E70D4C01224FF419
:101420008051204601F09BFD01220421204601F05D
:1014300096FDE4E7064C00224FF48051204601F06F
:101440008EFD00220421204601F089FDD7E700BF70
:101450000014024008B5552802D042280CD008BD1F
:1014600000224FF400510A4801F079FD002280214A
:10147000084801F074FDF2E701224FF400510448DE
:1014800001F06DFD01228021024801F068FDE6E7D0
:1014900000140240000C024008B5542802D0502825
:1014A0000CD008BD00224FF480410A4801F057FDDE
:1014B00000220821084801F052FDF2E701224FF412
:1014C0008041044801F04BFD01220821024801F04F
:1014D00046FDE6E7001402400010024010B5044645
:1014E0000368B3F1804F04D022681C4B9A421BD092
:1014F00010BD037F012BF7D14FF48051184801F044
:1015000027FD012804D1174A136801331360EBE764
:101510004FF48051124801F01BFD0028E4D1114A1C
:101520001368013B1360DFE7237F012BE0D1042127
:101530000B4801F00DFD012804D10B4A1368013B53
:101540001360D5E70421064801F002FD0028CFD141
:10155000054A136801331360CAE700BF000C00405E
:10156000001402403C3100204031002038B555ECD9
:10157000104B0022002310EE100A2946FFF7C0FA94
:1015800048B90022094B20462946FFF7C3FA20B18B
:101590000024064D01E00024002520462946FFF7DF
:1015A000CDFA034B1B680138586338BD0000594021
:1015B0003434002038B555EC104B0022002310EED7
:1015C000100A2946FFF79CFA48B90022094B204629
:1015D0002946FFF79FFA20B10024064D01E00024C0
:1015E000002520462946FFF7A9FA034B1B6801385E
:1015F000586338BD00005940EC3300200000000063
:1016000038B555EC104B0022002310EE100A294685
:10161000FFF76CFA48B908A3D3E90023204629460E
:10162000FEF7F2FF41EC100B38BD05F100431D46FB
:10163000F1E700BFAFF30080DE7A0C39247E504022
:1016400038B555EC124B0022002312EE100A294641
:10165000FFF74CFA68B900220B4B20462946FEF7EB
:10166000D3FF07A3D3E90023FFF7F8F841EC100BF1
:1016700038BD05F100431D46EDE700BFAFF3008024
:10168000F5E846DACA400840000043400000000088
:101690002DE9F04F2DED028BDBB0384B0193384B29
:1016A0000093384B384A3949012008F02DFF55A8DE
:1016B00008F0AAFC364B5593364B5693364B57934E
:1016C000364B589355A808F0ADFC002847D00024AD
:1016D000334BDC60334BDC6006A808F0C3FC2FAE54
:1016E00006AD0FCD0FC62B6833602FAB22462146C7
:1016F00034A808F08FFB34AB2B4A2C492DA808F0F6
:10170000D7FB09F0E7FB0246294B2DA954A808F0A6
:101710000BFC09F0DFFB0246264B2DA951A808F06F
:1017200003FC09F0D7FB0246234B2DA953A808F070
:10173000FBFB06F001FC0246204B2DA94FA808F048
:1017400027FC2FAB012235A90CA808F005F900945D
:101750001B4B42AA4FA90CA808F072F9E1E04FF424
:101760009371184805F012FDB1E7174B012018607E
:10177000E3E0164B0A201860E5E000BF3D6F00086B
:10178000FF6E0008F16E0008D96E000814330020C7
:10179000756D0008956D0008B56D0008F56D0008C1
:1017A0004C3100206431002024460108283F010804
:1017B000343F0108483F01084C3F0108643F0108DD
:1017C000B11C0008003F0108903100204431002086
:1017D000A949C85CA949885401330132172AF7DDA9
:1017E000A64B5A79997942EA0122A5498A80DA7989
:1017F000187A42EA00224A805A7A0A809A7AD87A7B
:1018000042EA0022187B42EA0042587B42EA006228
:101810008A60C868121A0A619A7BD97B42EA01225F
:1018200098498A801A7C587C42EA00224A809A7C35
:101830000A80DA7C187D42EA0022587D42EA0042A2
:101840009B7D42EA03638B60CA68D21A0A61322226
:101850000021894805F0EFFC884B00221A605A608D
:101860009A60DA601A615A61874B93ED042B93ED0D
:10187000021B93ED000BFFF7C3FE57EC106B834B7D
:1018800093ED042B93ED021B93ED000BFFF7D8FEB5
:1018900055EC104B10EE102A2B4630463946FEF719
:1018A000FDFC41EC180B7A4BC3E9000122462B46A4
:1018B00030463946FEF7F0FC04460D46754BC3E949
:1018C0000045754B1B68002B7CD1744B42221A706B
:1018D0009FED678BB0EE480AF0EE680AFFF746FE10
:1018E000B0EE480AF0EE680AFFF764FE6B4B18781A
:1018F000FFF7B0FD6A4B1878FFF7CEFD694B1878FB
:10190000FFF764FD684B1A68D3170CA808F04CFA6F
:101910005B4B9A68DA605B4B9A68DA60002004F0EF
:10192000D5FD574B19695961564B1A695A610029FF
:10193000FFF61BAF5D4B00201860002AFFF619AFC1
:101940005B4B002018605A4B1B68584800680344E2
:101950000029B8BF4942642000FB0133002AB8BF08
:101960005242544901FB02335093002250A951A81E
:1019700007F0D8FE002252A953A807F0D3FE4E4C20
:101980000A2307224D49204602F0EFFD4FF4FA7377
:1019900032223949204602F04EFE002300E0013396
:1019A000192B3FF754AF344AD25CB82AF7D15A1CEE
:1019B00031498A5CB72AF2D19A1C8A5C012AEED19D
:1019C00000220BE7013B052B90D8DFE803F003274B
:1019D00079A0C4DA314B55221A7000220023FFF798
:1019E00085F850B90022002320462946FFF792F8D7
:1019F00030B12C4B46221A7002E02A4B52221A7048
:101A0000029425F0004303939DED020BFFF7AEFD1A
:101A10001F4B93ED000BFFF7CDFD67E71F4B5522E2
:101A20001A7000220023FFF761F850B9002200234A
:101A300020462946FFF76EF830B11A4B46221A703D
:101A400002E0184B4C221A70B0EE480AF0EE680A19
:101A5000FFF78CFD0F4BD3F800A05B6823F0004B21
:101A60004BEC10ABFFF7A6FD40E700BFAFF30080E3
:101A70000000000000000000380000206C00002082
:101A80004C31002064310020E0010020C80100201A
:101A9000883100208031002048310020FA010020E8
:101AA000F8010020F901002084000020903100207E
:101AB0004431002040420F005C3300203000002001
:101AC0003B4B55221A7000220023FFF70FF850B944
:101AD0000022002320462946FFF71CF830B1354B81
:101AE0004F221A7002E0334B52221A70B0EE480AAD
:101AF000F0EE680AFFF73AFD2F4BD3F800805B68E1
:101B000023F0004949EC108BFFF754FDEEE6284B1B
:101B100055221A7000220023FEF7E8FF50B9002278
:101B2000002320462946FEF7F5FF30B1214B4F2216
:101B30001A7002E01F4B4C221A70049425F00043E7
:101B400005939DED040BFFF711FD1C4B93ED000B6E
:101B5000FFF730FDCAE6164B55221A70154B462288
:101B60001A7047EC106BFFF701FD154B93ED042B3A
:101B700093ED021B93ED000BFFF742FDFFF71AFDFB
:101B8000B4E60B4B55221A700A4B4F221A7047ECE1
:101B9000106BFFF7EBFC0A4B93ED042B93ED021B4C
:101BA00093ED000BFFF72CFDFFF704FD9EE600BF51
:101BB000FA010020F9010020803100208831002046
:101BC000E0010020F8B555EC104B57EC156B0022E6
:101BD000002310EE100A2946FEF77EFF50B10022C6
:101BE000002330463946FEF777FF18B12F4B00220D
:101BF0001A60F8BD0022002330463946FEF76CFF1C
:101C0000B0B10022002320462946FEF78DFF18B10F
:101C1000264B05221A60ECE70022002320462946C5
:101C2000FEF764FF0028E4D0204B06221A60E0E7AC
:101C30000022002330463946FEF776FFB0B100227D
:101C4000002320462946FEF765FF18B1174B0222F4
:101C50001A60CEE70022002320462946FEF746FF01
:101C60000028C6D0114B04221A60C2E700220023CC
:101C700030463946FEF73AFF0028BAD0002200234A
:101C800020462946FEF746FF18B1084B01221A608C
:101C9000AFE70022002320462946FEF727FF002851
:101CA000A7D0024B03221A60A3E700BF48310020EF
:101CB00010B504464FF400610F4801F056F994ED59
:101CC000000B0E4B83ED000B94ED021B83ED021B0A
:101CD00094ED042B83ED042B94ED063B084B83ED30
:101CE000003B94ED084B83ED024B94ED0A5B83EDD2
:101CF000045BFFF767FF10BD00040240E001002015
:101D0000C801002010B582B000240194154B1A6B55
:101D100042F400121A631B6B03F400130193019B3E
:101D2000224605210B2001F0DFFB0B2001F014FC03
:101D3000224605210C2001F0D7FB0C2001F00CFC01
:101D4000224605210E2001F0CFFB0E2001F004FCFD
:101D5000224605212F2001F0C7FB2F2001F0FCFBBC
:101D600002B010BD0038024008B50A480A4B0360B3
:101D70004FF41653436000238360C36003610C2259
:101D800042618361C36102F0C0FB00B908BDFFF787
:101D90000BF9FBE75C3300200050004008B50A480F
:101DA0000A4B03604FF4E133436000238360C36058
:101DB00003610C2242618361C36102F0A6FB00B99A
:101DC00008BDFFF7F1F8FBE714330020004800409E
:101DD0002DE9F0418AB0044600230593069307934A
:101DE000089309930368714A934205D0704A93425D
:101DF00075D00AB0BDE8F081002500956D4B1A6CD6
:101E000042F480121A641A6C02F480120092009A52
:101E100001951A6B42F004021A631A6B02F0040275
:101E20000192019A02951A6B42F008021A631B6B29
:101E300003F008030293029B4FF4805305934FF085
:101E40000208CDF81880032708970826099605A9E7
:101E5000594800F079FF04230593CDF818800795C1
:101E60000897099605A9554800F06EFF5448554B50
:101E700003604FF0006343608560C5604FF480638A
:101E8000036145618561C5614FF44033036245627A
:101E900001F0F4F8E8B94A4BE3639C634A484B4BC2
:101EA00003604FF000634360402383600023C360FE
:101EB0004FF48062026143618361C3614FF4403239
:101EC0000262436201F0DAF830B93F4BA3639C63CE
:101ED0008FE7FFF769F8DEE7FFF766F8F5E700251B
:101EE0000395344B1A6C42F480221A641A6C02F483
:101EF00080220392039A04951A6B42F008021A6337
:101F00001B6B03F008030493049B4FF44073059389
:101F100002230693032308930723099305A927485F
:101F200000F012FF2A482B4B03604FF00063436020
:101F30008560C5604FF480630361456185614FF43E
:101F40008073C3614FF440330362456201F096F839
:101F500028BB1F4BE3639C631F48204B03604FF07B
:101F600000634360402383600023C3604FF48062BA
:101F7000026143618361C3614FF440320262436294
:101F800001F07CF870B9144BA3639C630022052117
:101F9000272001F0A9FA272001F0DEFA29E7FFF750
:101FA00003F8D6E7FFF700F8EDE700BF0050004068
:101FB000004800400038024000080240000C024087
:101FC0009431002010600240F4310020B8600240DB
:101FD0005432002028600240B43200205860024091
:101FE00000B587B0002304930593009301930293F7
:101FF000039316484FF080420260092242608360DA
:102000006422C2600361836101F0B4FDA8B90023BA
:102010000493059304A90D4802F0F6F880B9002254
:10202000009201230193029203926946074801F04E
:10203000B1FE40B907B05DF804FBFEF7B5FFE6E777
:10204000FEF7B2FFEBE7FEF7AFFFF3E7A4330020A4
:1020500000B587B000230493059300930193029386
:1020600003931648164A0260436083604FF0FF32C4
:10207000C2600361836101F07DFDA8B90023049370
:10208000059304A90D4802F0BFF880B90022009220
:1020900001230193029203926946084801F07AFEF7
:1020A00040B907B05DF804FBFEF77EFFE6E7FEF7F8
:1020B0007BFFEBE7FEF778FFF3E700BF7C340020FF
:1020C000000C004000B585B00023009301930293FB
:1020D00003931048104A026042F227324260836044
:1020E00042F20F72C2600361836101F0EBFC50B9F0
:1020F0004FF4805300936946064801F0BAFE28B9B0
:1021000005B05DF804FBFEF74FFFF1E7FEF74CFF6B
:10211000F6E700BFC43400200040014010B58AB08B
:102120000023059306930793089309930368B3F17B
:10213000804F04D02D4A93422DD00AB010BD002408
:10214000019403F50E331A6C42F001021A641A6C02
:1021500002F001020192019A02941A6B42F001020C
:102160001A631B6B03F001030293029B2023059368
:1021700002230693032308930123099305A91C480E
:1021800000F0E2FD224605211C2001F0ADF91C20E3
:1021900001F0E2F9D1E700240394164B1A6C42F0E7
:1021A00008021A641A6C02F008020392039A04945B
:1021B0001A6B42F001021A631B6B03F001030493D4
:1021C000049B01230593022306930322089209939B
:1021D00005A9074800F0B8FD22460521322001F08C
:1021E00083F9322001F0B8F9A7E700BF000C0040E6
:1021F000000002400038024000B585B003681D4A67
:10220000934208D01C4A934219D01C4A934223D0CF
:1022100005B05DF804FB00220192194B196C41F0E6
:10222000020119641B6C03F002030193019B052159
:102230001D2001F059F91D2001F08EF9E8E7002377
:1022400002930F4B1A6C42F004021A641B6C03F0E9
:1022500004030293029BDBE700230393084B5A6CB1
:1022600042F480325A645B6C03F480330393039B23
:10227000CEE700BF000400400008004000400140DD
:102280000038024000B589B00023039304930593FE
:102290000693079303681B4A934205D01A4A934258
:1022A00018D009B05DF804FB00230193174B1A6B9B
:1022B00042F001021A631B6B03F001030193019BBF
:1022C0004023039302230493079303A9104800F0CB
:1022D0003BFDE6E7002302930C4B1A6B42F0080229
:1022E0001A631B6B03F008030293029B4FF48053A5
:1022F000039302230493079303A9064800F024FDE7
:10230000CFE700BF00040040000800400038024052
:1023100000000240000C024000B58FB000230A9379
:102320000B930C930D9308930993019302930393DA
:1023300004930593069307932048214A026059228B
:10234000426083606322C2600361836101F0BAFB73
:1023500020BB4FF480530A930AA9184801F089FD65
:10236000F8B9164801F0DAFBF0B900230893099395
:1023700008A9124801F048FFC8B960230193002260
:1023800002920392059201A90C4801F057FC88B90A
:102390000A48FFF777FF0FB05DF804FBFEF704FE75
:1023A000D7E7FEF701FEDCE7FEF7FEFDDDE7FEF70F
:1023B000FBFDE2E7FEF7F8FDEAE700BFEC330020A3
:1023C0000004004000B58FB000230A930B930C93D8
:1023D0000D93089309930193029303930493059338
:1023E000069307932048214A026059224260836085
:1023F0006322C2600361836101F064FB20BB4FF480
:1024000080530A930AA9184801F033FDF8B9164819
:1024100001F084FBF0B900230893099308A912483E
:1024200001F0F2FEC8B960230193002202920392E8
:10243000059201A90C4801F001FC88B90A48FFF790
:1024400021FF0FB05DF804FBFEF7AEFDD7E7FEF706
:10245000ABFDDCE7FEF7A8FDDDE7FEF7A5FDE2E753
:10246000FEF7A2FDEAE700BF343400200008004078
:102470000120704708B504F02DFF162303604FF0CC
:10248000FF3008BD08B54FF0FF31FFF7F3FFFEE75F
:1024900070B50C461646002506E0AFF300802146D5
:1024A00001F8010B01350C46B542F6DB304670BD34
:1024B00008B503460D4A12685AB10C4A1068034425
:1024C0000B4A11780B4A521A934206D8074A1360F6
:1024D00008BD064A08491160EFE700BE04F0FAFEA5
:1024E0000C2303604FF0FF30F2E700BF10350020EF
:1024F0000004000000000320E80F01204FF0FF302F
:1025000070474FF400534B60002070470120704724
:1025100000207047FEE7FEE7FEE7FEE7FEE77047B4
:1025200008B5024800F0A2FE08BD00BF94310020AB
:1025300008B5024800F09AFE08BD00BF54320020E2
:1025400008B5024800F092FE08BD00BFB43200207A
:1025500008B5024801F09AF908BD00BF1435002003
:1025600008B5024801F092F908BD00BFA43300206D
:1025700008B5024801F08AF908BD00BFEC3300201D
:1025800008B5024802F02AFA08BD00BF1433002043
:1025900008B5024800F06AFE08BD00BFF431002013
:1025A00008B5024801F072F908BD00BF7C34002074
:1025B00000B583B0002200920D4B596C41F480416C
:1025C0005964596C01F48041009100990192196C91
:1025D00041F0805119641B6C03F080530193019BFF
:1025E0000F216FF0010000F07FFF03B05DF804FBE6
:1025F0000038024030B589B00546002401941E4BD6
:102600005A6C42F001025A645B6C03F001030193BF
:10261000019B02A903A800F079FB00F067FB4300CF
:10262000164AA2FB03239B0C013B1548154A026086
:1026300040F2E732C260436004618460846101F06B
:1026400041FA044610B1204609B030BD0C4801F0F3
:10265000D5F804460028F6D1192000F07DFF0F2D93
:1026600001D90124EFE700222946192000F03CFFA0
:10267000054B1D60E7E700BF0038024083DE1B43C7
:10268000143500200000014090000020002800F0D8
:10269000E08170B582B00446036813F0010F3BD0AF
:1026A0009F4B9B6803F00C03042B2CD09C4B9B6826
:1026B00003F00C03082B21D06368B3F5803F4FD0A3
:1026C000B3F5A02F52D0964B1A6822F480321A60CC
:1026D0001A6822F480221A606368002B50D000F040
:1026E0006FFF05468E4B1B6813F4003F14D100F0BA
:1026F00067FF401B6428F5D90320B1E1884B5B6874
:1027000013F4800FD8D0864B1B6813F4003F03D01E
:102710006368002B00F09F81236813F0020F54D0F0
:102720007F4B9B6813F00C0F3ED07D4B9B6803F0F2
:102730000C03082B33D0E368002B68D0794B0122BF
:102740001A6000F03DFF0546754B1B6813F0020F41
:1027500054D100F035FF401B0228F5D903207FE15A
:102760006F4A136843F480331360B5E76C4B1A6803
:1027700042F480221A601A6842F480321A60ABE791
:1027800000F01EFF0546664B1B6813F4003FC3D0E4
:1027900000F016FF401B6428F5D9032060E1604B70
:1027A0005B6813F4800FC6D15D4B1B6813F0020FFA
:1027B00003D0E368012B40F05081594A136823F09D
:1027C000F803216943EAC1031360236813F0080F7B
:1027D00042D063696BB3534B0122C3F8802E00F0E3
:1027E000EFFE05464E4B5B6F13F0020F34D100F045
:1027F000E7FE401B0228F5D9032031E1484A13685F
:1028000023F0F803216943EAC1031360DDE7454B78
:1028100000221A6000F0D4FE0546414B1B6813F0FD
:10282000020FD2D000F0CCFE401B0228F5D90320C5
:1028300016E13C4B0022C3F8802E00F0C1FE054695
:10284000374B5B6F13F0020F06D000F0B9FE401B50
:102850000228F5D9032003E1236813F0040F77D091
:102860002F4B1B6C13F0805F33D1002301932C4B53
:102870001A6C42F080521A641B6C03F0805301936F
:10288000019B0125284B1B6813F4807F23D0A3688C
:10289000012B34D0052B38D0214B1A6F22F00102C6
:1028A0001A671A6F22F004021A67A368002B3DD042
:1028B00000F086FE06461A4B1B6F13F0020F46D13E
:1028C00000F07EFE801B41F288339842F3D903204A
:1028D000C6E00025D6E7144A136843F480731360FA
:1028E00000F06EFE0646104B1B6813F4807FCED1BD
:1028F00000F066FE801B0228F5D90320B0E0084AEC
:10290000136F43F001031367CFE7054B1A6F42F0D3
:1029100004021A671A6F42F001021A67C5E700BF86
:1029200000380240000047420070004000F048FEBE
:102930000646524B1B6F13F0020F08D000F040FE0A
:10294000801B41F288339842F3D9032088E0EDB927
:10295000A369002B00F08380484A926802F00C02C1
:10296000082A51D0022B17D0454B00221A6600F0DE
:1029700027FE0446414B1B6813F0007F42D000F055
:102980001FFE001B0228F5D9032069E03B4A136CA7
:1029900023F080531364DBE7394B00221A6600F002
:1029A0000FFE0546354B1B6813F0007F06D000F084
:1029B00007FE401B0228F5D9032051E0E369226A93
:1029C0001343626A43EA8213A26A5208013A43EA55
:1029D0000243E26A43EA0263284A5360284B012219
:1029E0001A6600F0EDFD0446244B1B6813F0007FCF
:1029F00006D100F0E5FD001B0228F5D903202FE0E9
:102A000000202DE000202BE0012B2BD01B4B5B681E
:102A100003F48001E269914226D103F03F02216A6A
:102A20008A4223D1616A47F6C0721A40B2EB811F15
:102A30001ED103F44031A26A5208013AB1EB024FB1
:102A400018D103F07063E26AB3EB026F14D1002077
:102A500006E001207047012002E0012000E0002094
:102A600002B070BD0120FBE70120F9E70120F7E784
:102A70000120F5E70120F3E70120F1E700380240EB
:102A80000000474208B5334B9B6803F00C03042B4E
:102A90005BD0082B5BD12F4B5A6802F03F025B687A
:102AA00013F4800F2CD02B4B5868C0F388104FEADA
:102AB000401CBCEB000C6EEB0E0E4FEA8E1343EA8B
:102AC0009C634FEA8C11B1EB0C0163EB0E03DB004E
:102AD00043EA5173C90011EB000C43F100035902A2
:102AE00000234FEA4C2041EADC51FEF79FF8194BD6
:102AF0005B68C3F3014301335B00B0FBF3F027E0F5
:102B0000144B5868C0F388104FEA401CBCEB000C13
:102B10006EEB0E0E4FEA8E1343EA9C634FEA8C1164
:102B2000B1EB0C0163EB0E03DB0043EA5173C90008
:102B300011EB000C43F10003990200234FEA8C20B3
:102B400041EA9C51FEF772F8D1E7034800E00348E0
:102B500008BD00BF0038024000127A000024F400D3
:102B6000002800F09B8070B50D4604464F4B1B6853
:102B700003F00F038B4208D2CBB24C4A1370136898
:102B800003F00F038B4240F08B80236813F0020F99
:102B900017D013F0040F04D0454A936843F4E05370
:102BA0009360236813F0080F04D0414A936843F4FC
:102BB000604393603E4A936823F0F003A1680B439F
:102BC0009360236813F0010F32D06368012B21D08A
:102BD0009A1E012A25D9364A126812F0020F61D0D6
:102BE00033498A6822F0030213438B6000F0E8FC4B
:102BF00006462F4B9B6803F00C036268B3EB820F11
:102C000016D000F0DDFC801B41F288339842F0D9E9
:102C1000032042E0264A126812F4003FE0D101206E
:102C20003BE0234A126812F0007FD9D1012034E042
:102C30001E4B1B6803F00F03AB4207D9EAB21B4BD4
:102C40001A701B6803F00F03AB422DD1236813F0F9
:102C5000040F06D0164A936823F4E053E1680B434F
:102C60009360236813F0080F07D0114A936823F488
:102C70006043216943EAC1039360FFF703FF0C4BF4
:102C80009B68C3F303130B4AD35CD8400A4B18600C
:102C90000A4B1868FFF7AEFC002070BD012070479A
:102CA0000120FAE70120F8E70120F6E7003C0240A6
:102CB00000380240A43F010894000020900000204A
:102CC000014B1868704700BF9400002008B5FFF75B
:102CD000F7FF044B9B68C3F38223034AD35CD840BD
:102CE00008BD00BF00380240B43F010808B5FFF737
:102CF000E7FF044B9B68C3F34233034AD35CD840DD
:102D000008BD00BF00380240B43F01080F23036034
:102D10000B4B9A6802F0030242609A6802F0F002DC
:102D200082609A6802F4E052C2609B68DB0803F498
:102D3000E0530361034B1B6803F00F030B60704704
:102D400000380240003C024000230F2B00F2F680C6
:102D500070B582B066E085684FEA430E032404FA3A
:102D60000EF425EA0405CC6804FA0EF42C438460C2
:102D7000446824EA02044A68C2F300129A402243DB
:102D800042605DE0DC08083450F8242003F00705B9
:102D9000AD004FF00F0E0EFA05FE22EA0E0E0A6984
:102DA000AA4042EA0E0240F824205DE0092200E039
:102DB000002202FA0EF22A430234614D45F8242023
:102DC000604A94686FEA0C0224EA0C054E6816F417
:102DD000801F01D04CEA04055A4CA560E46802EA61
:102DE00004054E6816F4001F01D04CEA0405554C4A
:102DF000E560646802EA04054E6816F4003F01D0FD
:102E00004CEA04054F4C6560246822404D6815F477
:102E1000803F01D04CEA04024A4C226001330F2B60
:102E200000F28A8001229A400C6804EA020C32EA1D
:102E30000404F3D14C6804F00304013C012C8AD94A
:102E40004A6802F00302032A09D0C4685D00032225
:102E5000AA4024EA02048A68AA402243C2604A685F
:102E600002F00302022A8DD004684FEA430E0322C7
:102E700002FA0EF224EA02044A6802F0030202FA9D
:102E80000EF2224302604A6812F4403FC6D000228C
:102E900001922D4A546C44F480445464526C02F400
:102EA00080420192019A9C08A51C254A52F825509F
:102EB00003F0030E4FEA8E0E0F2202FA0EF225EAFD
:102EC0000205224A90423FF473AF02F580629042BD
:102ED00022D002F58062904220D002F580629042BA
:102EE0001ED002F5806290421CD002F580629042B2
:102EF0001AD002F58062904218D002F580629042AA
:102F000016D002F58062904214D002F580629042A1
:102F10003FF44CAF0A224CE701224AE7022248E77D
:102F2000032246E7042244E7052242E7062240E75F
:102F300007223EE708223CE702B070BD704700BFA1
:102F400000380140003C01400038024000000240CF
:102F50000369194201D001207047002070470AB16F
:102F600081617047090481617047436901EA030286
:102F700021EA030141EA02418161704730B40568EA
:102F80002C6824F480242C60046863608368402BE0
:102F900005D0036899600368DA6030BC7047036845
:102FA0009A600368D960F8E710B40368D9B21039A1
:102FB0000C4AA2FB014212090B4CA25CC2655F29BC
:102FC00009D923F47F7323F0030304338365806DF1
:102FD0005DF8044B704723F47F7323F0030383658C
:102FE000F5E700BFABAAAAAA9C3F0108836A8269E1
:102FF00092B9012B0AD0022B02D00BB100207047EE
:10300000C36A13F0807F28D100207047C36AB3F1F0
:10301000C07F24D000207047B2F5005F09D0022B9A
:1030200025D9032B25D1C36A13F0807F23D100203B
:103030007047032B03D8DFE803F01404140A0020C0
:103040007047C36A13F0807F0DD100207047C36AB8
:10305000B3F1C07F09D000207047012070470120E4
:103060007047012070470120704701207047012000
:1030700070470020704701207047000070B504467B
:1030800000F09EFA002C5BD00546022384F8353010
:10309000002384F834302268136823F0010313609E
:1030A00023681A6812F0010F0AD000F089FA431B56
:1030B000052BF5D920236365032084F8350070BD06
:1030C0001A68204911406268A0680243E068024320
:1030D0002069024360690243A0690243E069024338
:1030E000206A02430A43616A04291ED01A602668D6
:1030F000756925F00705636A1D43042B07D1A36A90
:103100001D43E36A1BB12046FFF770FF90B975615C
:103110002046FFF749FFE26D3F2393408360002084
:103120006065012384F83530C9E7E16A206B01430B
:103130000A43DBE740236365012084F83500BEE7DE
:103140000120BCE73F8010F038B50446856D90F84B
:10315000340001282BD0012084F8340094F8350085
:10316000C0B2012804D0002384F83430022038BDD6
:10317000022084F83500002060652046FFF7FEFE3F
:10318000E26D3F239340AB602268136843F016035F
:103190001360236C23B12268136843F008031360A3
:1031A0002268136843F0010313600020DFE7022068
:1031B000DDE770B50446866D00F002FA94F835300C
:1031C000DBB2022B06D080236365002384F8343001
:1031D000012070BD05462268136823F016031360B2
:1031E0002268536923F080035361236CE3B12268A2
:1031F000136823F0080313602268136823F00103A7
:10320000136023681B6813F0010F11D000F0D8F988
:10321000431B052BF5D920236365032084F8350073
:10322000002384F83430D4E7A36C002BDFD1E3E72C
:10323000E26D3F239340B360012384F835300020D2
:1032400084F83400C5E790F83530DBB2022B03D0A8
:103250008023436501207047052380F835300268DC
:10326000136823F00103136000207047F0B583B0AA
:10327000044600230193724B1D68724BA3FB053576
:10328000AD0A876D3E68C26D08239340334210D06B
:1032900003681A6812F0040F0BD01A6822F00402B7
:1032A0001A60C26D08239340BB60436D43F0010375
:1032B0004365E26D01239340334209D0226852698D
:1032C00012F0800F04D0BB60636D43F002036365AE
:1032D000E26D04239340334209D02268126812F051
:1032E000020F04D0BB60636D43F004036365E26DBD
:1032F00010239340334224D02268126812F0080F42
:103300001FD0BB6023681A6812F4802F0DD01B6891
:1033100013F4002F04D1236C9BB12046984710E092
:10332000A36C73B1204698470BE01A6812F4807FB3
:1033300003D11A6822F008021A60236C0BB12046F0
:103340009847E26D20239340334255D0226812689B
:1033500012F0100F50D0BB6094F83530DBB2052B63
:103360000ED023681A6812F4802F33D01B6813F430
:10337000002F2AD1636C002B3ED0204698473BE0BB
:103380002268136823F0160313602268536923F040
:1033900080035361236CA3B12268136823F00803F0
:1033A0001360E26D3F239340BB60012384F8353006
:1033B000002384F83430236D002B3FD020469847FB
:1033C0003CE0A36C002BE7D1EBE7E36BA3B1204615
:1033D000984711E01A6812F4807F09D11A6822F028
:1033E00010021A60012384F83530002384F8343049
:1033F000E36B0BB120469847636DFBB1636D13F02F
:10340000010F17D0052384F835302268136823F0A4
:1034100001031360019B01330193AB4204D823687D
:103420001B6813F0010FF5D1012384F83530002318
:1034300084F83430E36C0BB12046984703B0F0BDFC
:1034400094000020B5814E1B10B582B0002301937B
:10345000194B1A6C42F080521A641B6C03F08053B3
:103460000193019B154B01221A6400F0A9F8044650
:10347000134B5B6813F4803F08D100F0A1F8001BE8
:10348000B0F57A7FF4D9032002B010BD0B4B0122B6
:103490005A6400F095F80446094B5B6813F4003F4A
:1034A00007D100F08DF8001BB0F57A7FF4D9032026
:1034B000EAE70020E8E700BF0038024000000E42C3
:1034C00000700040074AD36823F4E0631B041B0C20
:1034D000000200F4E060034343F0BF6343F40033B1
:1034E000D360704700ED00E000B5194BDB68C3F313
:1034F0000223C3F1070CBCF1040F28BF4FF0040CEA
:1035000003F1040EBEF1060F18D9033B4FF0FF3E46
:103510000EFA0CFC21EA0C0199400EFA03FE22EA95
:103520000E020A4300280BDB1201D2B200F1604008
:1035300000F5614080F800235DF804FB0023E5E717
:1035400000F00F001201D2B2024B1A54F4E700BF90
:1035500000ED00E014ED00E0002807DB00F01F02A2
:10356000400901239340024A42F82030704700BFCF
:1035700000E100E008B50B4B1A6842F400721A60D3
:103580001A6842F480621A601A6842F480721A6003
:103590000320FFF797FF0F20FFF72CF8FFF708F83D
:1035A000002008BD003C0240034A1168034B1B7811
:1035B0000B441360704700BF5C3500208C00002076
:1035C000014B1868704700BF5C35002030B4036AB7
:1035D000026A22F0010202624268846924F0730CDC
:1035E0000C6844EA0C0423F0020C8B6843EA0C03D9
:1035F000114DA84203D005F58065A84205D123F0FE
:103600000803CD682B4323F004030B4DA84203D0DD
:1036100005F58065A84207D122F440724D6945EA5C
:10362000020C8A6942EA0C02426084614A68426381
:10363000036230BC704700BF0000014030B4036A31
:10364000026A22F4807202624268C46924F0730C38
:103650000C6844EA0C0523F400738C6843EA0423E5
:10366000114CA04203D004F58064A04206D123F49B
:103670000063CC6843EA042323F480630A4CA0422D
:1036800003D004F58064A04207D122F440524C6973
:1036900042EA04128C6942EA04124260C5614A6837
:1036A000C263036230BC70470000014030B4036A5B
:1036B000026A22F4805202624468C26922F4E6423D
:1036C0000D6842EA052223F400538D6843EA05336E
:1036D000094DA84203D005F58065A84204D124F421
:1036E00080444D6944EA85144460C2614A680264BA
:1036F000036230BC704700BF0000014010B4036A91
:10370000046A24F001040462846924F0F00C4CEA99
:10371000021223F00A030B43826103625DF8044B3B
:10372000704730B4056A046A24F0100404628469A6
:1037300024F4407C4CEA022C2CF4704C1B039BB20A
:1037400043EA0C0325F0A005090101F0A00129437B
:103750008361016230BC704710B4036A046A24F0CC
:1037600010040462846924F4704C4CEA023223F0A1
:10377000A00343EA0113826103625DF8044B7047C2
:1037800030B4056A046A24F480740462C46924F0C5
:10379000030C4CEA020C2CF0F00C1B01DBB243EAE8
:1037A0000C0325F42065090201F420612943C3615B
:1037B000016230BC704730B4056A046A24F4805456
:1037C0000462C46924F4407C4CEA022C2CF4704C52
:1037D0001B039BB243EA0C0325F42045090301F4C3
:1037E00020412943C361016230BC7047836823F0E4
:1037F00070030B4343F007038360704790F83D303C
:10380000DBB2012B37D1022380F83D300268D36848
:1038100043F00103D3600368194A934220D0B3F107
:10382000804F1DD0A2F57C42934219D002F58062F0
:10383000934215D002F58062934211D002F578428E
:1038400093420DD002F57052934209D0A2F5943202
:10385000934205D01A6842F001021A6000207047B6
:103860009A6802F00702062A07D01A6842F001029D
:103870001A6000207047012070470020704700BF89
:1038800000000140704770477047704770B50446AC
:103890000368DE681D6915F0020F10D016F0020FE4
:1038A0000DD06FF002021A610123037703689B6950
:1038B00013F0030F5ED0FDF711FE0023237715F000
:1038C000040F12D016F0040F0FD023686FF004021B
:1038D0001A610223237723689B6913F4407F4FD03A
:1038E0002046FDF7FBFD0023237715F0080F12D0CB
:1038F00016F0080F0FD023686FF008021A61042336
:1039000023772368DB6913F0030F40D02046FDF7CF
:10391000E5FD0023237715F0100F12D016F0100FDD
:103920000FD023686FF010021A61082323772368F1
:10393000DB6913F4407F31D02046FDF7CFFD002333
:10394000237715F0010F02D016F0010F2DD115F0DD
:10395000800F02D016F0800F2FD115F0400F02D04B
:1039600016F0400F31D115F0200F02D016F0200FC5
:1039700033D170BDFFF787FF2046FFF785FF9CE737
:103980002046FFF780FF2046FFF77EFFABE720468B
:10399000FFF779FF2046FFF777FFBAE72046FFF7EA
:1039A00072FF2046FFF770FFC9E723686FF001023E
:1039B0001A612046FDF7D8FAC9E723686FF0800244
:1039C0001A61204600F067FCC7E723686FF04002E9
:1039D0001A612046FFF759FFC5E723686FF0200200
:1039E0001A61204600F056FCC3E700000368344A21
:1039F000904212D0B0F1804F0FD0A2F57C4290429D
:103A00000BD002F58062904207D002F580629042AE
:103A100003D002F57842904203D123F070034A6844
:103A20001343274A90422AD0B0F1804F27D0A2F505
:103A30007C42904223D002F5806290421FD002F572
:103A4000806290421BD002F57842904217D002F576
:103A50007052904213D002F5806290420FD002F56E
:103A6000806290420BD0A2F59832904207D002F5C6
:103A70008062904203D002F58062904203D123F429
:103A80004073CA68134323F080034A6913430360F9
:103A90008B68C3620B688362094B984203D003F5BD
:103AA0008063984201D10B69036301234361036979
:103AB00013F0010F03D0036923F001030361704782
:103AC0000000014040B310B5044690F83D30F3B11A
:103AD000022384F83D30214651F8040BFFF786FF9E
:103AE000012384F8463084F83E3084F83F3084F86F
:103AF000403084F8413084F8423084F8433084F810
:103B0000443084F8453084F83D30002010BD80F802
:103B10003C30FEF771FBDBE70120704740B310B586
:103B2000044690F83D30F3B1022384F83D3021463D
:103B300051F8040BFFF75AFF012384F8463084F84C
:103B40003E3084F83F3084F8403084F8413084F8C7
:103B5000423084F8433084F8443084F8453084F8A7
:103B60003D30002010BD80F83C30FFF78BFEDBE7D6
:103B70000120704740B310B5044690F83D30F3B1D2
:103B8000022384F83D30214651F8040BFFF72EFF45
:103B9000012384F8463084F83E3084F83F3084F8BE
:103BA000403084F8413084F8423084F8433084F85F
:103BB000443084F8453084F83D30002010BD80F852
:103BC0003C30FEF7ABFADBE70120704730B4036A04
:103BD000026A22F0100202624468826922F4E6421C
:103BE0000D6842EA052223F020038D6843EA05139D
:103BF000114DA84203D005F58065A84206D123F0F7
:103C00008003CD6843EA051323F040030A4DA84220
:103C100003D005F58065A84207D124F440644D69BE
:103C200044EA85048D6944EA8504446082614A68F7
:103C30008263036230BC70470000014038B590F8E1
:103C40003C30012B66D004460D46012380F83C3001
:103C50000C2A5AD8DFE802F0075959591B5959590B
:103C60003059595944000068FFF7B0FC2268936945
:103C700043F0080393612268936923F0040393617E
:103C80002268936929690B43936100203EE0006834
:103C9000FFF79CFF2268936943F4006393612268F5
:103CA000936923F48063936122689369296943EAE5
:103CB00001239361002029E00068FFF7BFFC226820
:103CC000D36943F00803D3612268D36923F0040366
:103CD000D3612268D36929690B43D361002015E0C1
:103CE0000068FFF7E3FC2268D36943F40063D36103
:103CF0002268D36923F48063D3612268D369296978
:103D000043EA0123D361002000E00120002384F86E
:103D10003C3038BD0220FCE770B49446066A046A61
:103D200024F0010404628469184DA8421CD0B0F14B
:103D3000804F19D0164A904216D002F58062904208
:103D400012D002F5806290420ED002F57842904285
:103D50000AD002F57052904206D0A2F594329042F9
:103D600002D044F0010203E024F0030242EA0C0214
:103D700022F0F0021B01DBB2134326F00A0201F02D
:103D80000A0111438361016270BC70470000014069
:103D90000004004038B590F83C30012B5AD004465E
:103DA0000D46012380F83C3052B1042A1AD0082A6B
:103DB0002BD00C2A3BD00120002384F83C3038BDA6
:103DC000CB684A6809680068FFF7A6FF2268936914
:103DD00023F00C03936122689369A9680B439361F4
:103DE0000020E9E7CB684A6809680068FFF799FC9A
:103DF0002268936923F44063936122689369A968F8
:103E000043EA012393610020D6E7CB684A6809683A
:103E10000068FFF7B5FC2268D36923F00C03D36177
:103E20002268D369A9680B43D3610020C4E7CB683B
:103E30004A6809680068FFF7BEFC2268D36923F46A
:103E40004063D3612268D369A96843EA0123D3613F
:103E50000020B1E70220B2E710B4846824F47F4C5C
:103E600042EA03220A4342EA0C0282605DF8044BF4
:103E7000704790F83C30012B78D010B504460123F0
:103E800080F83C30022380F83D300268936823F4C8
:103E90007F4323F0770393600B68602B4CD029D8C5
:103EA000402B54D00CD9502B22D1CA6849680068E5
:103EB000FFF724FC50212068FFF798FC002005E064
:103EC000202B0DD009D9302B0AD00120012384F8F2
:103ED0003D30002384F83C3010BD0BB1102B05D1D0
:103EE00019462068FFF782FC0020EFE70120EDE78C
:103EF0000120EBE7B3F5805F34D0B3F5005F0CD160
:103F0000CB684A6889680068FFF7A6FF2268936853
:103F100043F4804393600020D8E7702B24D1CB6812
:103F20004A6889680068FFF797FF2268936843F042
:103F3000770393600020C9E7CA6849680068FFF703
:103F40000BFC60212068FFF751FC0020BEE7CA6827
:103F500049680068FFF7D2FB40212068FFF746FC64
:103F60000020B3E70020B1E70120AFE7022070474F
:103F700001F01F014FF0010C0CFA01FC036A23EA67
:103F80000C030362036A8A40134303627047000014
:103F900010B504460846002942D194F83E30DBB201
:103FA000013B18BF0123002B6ED1002851D1022301
:103FB00084F83E30012201462068FFF7D9FF2368CC
:103FC000334A934203D002F58062934203D15A6C84
:103FD00042F400425A6423682D4A934249D0B3F117
:103FE000804F46D0A2F57C42934242D002F58062D7
:103FF00093423ED002F5806293423AD002F5784275
:10400000934236D002F57052934232D0A2F59432E8
:1040100093422ED01A6842F001021A60002032E06A
:10402000042908D008290DD094F84130DBB2013BB7
:1040300018BF0123B7E794F83F30DBB2013B18BF4C
:104040000123B0E794F84030DBB2013B18BF0123F5
:10405000A9E7042805D0082807D0022384F84130B6
:10406000A8E7022384F83F30A4E7022384F8403015
:10407000A0E79A6802F00702062A07D01A6842F001
:1040800001021A60002010BD0120FCE70020FAE7C1
:104090000000014010B504460B4609BB90F83E00F5
:1040A000C0B26BBB94F84220D2B2012840F0A48089
:1040B000012A40F0A2809BBB022184F83E10002B15
:1040C0003ED1022184F842100C2B00F29780DFE8E9
:1040D00003F047959595769595957C9595958200F5
:1040E000042905D0082907D090F84100C0B2D8E7CC
:1040F00090F83F00C0B2D4E790F84000C0B2D0E7DB
:10410000042B05D0082B07D094F84520D2B2CCE779
:1041100094F84320D2B2C8E794F84420D2B2C4E75E
:10412000042B05D0082B07D0022184F84110C6E7E4
:10413000022184F83F10C2E7022184F84010BEE754
:10414000042B05D0082B07D0022184F84510BBE7CB
:10415000022184F84310B7E7022184F84410B3E742
:104160002168CA6842F00202CA600122194620682A
:10417000FFF7FEFE2368234A934232D0B3F1804F0B
:104180002FD0A2F57C4293422BD002F5806293425D
:1041900027D002F58062934223D002F57842934201
:1041A0001FD002F5705293421BD0A2F59432934275
:1041B00017D01A6842F001021A6000201DE0216841
:1041C000CA6842F00402CA60CFE72168CA6842F0B8
:1041D0000802CA60C9E72168CA6842F01002CA60D2
:1041E000C3E79A6802F00702062A09D01A6842F06B
:1041F00001021A60002000E0012010BD1046FCE71B
:104200000020FAE70000014090F83C20012A3DD050
:1042100010B40346012280F83C20022280F83D20A1
:1042200002685068946820F0700C086840EA0C003E
:1042300050601A68164882421AD0B2F1804F17D0E7
:10424000A0F57C40824213D000F5806082420FD0FE
:1042500000F5806082420BD000F57840824207D0A2
:1042600000F57050824203D0A0F59430824204D110
:1042700024F08004496821439160012283F83D20A5
:10428000002083F83C005DF8044B70470220704723
:104290000000014070477047026802F10C0353E8C8
:1042A000003F23F0C0030C3242E800310029F3D173
:1042B000202380F841307047026802F10C0353E874
:1042C000003F23F490730C3242E800310029F3D10F
:1042D000026802F1140353E8003F23F00103143293
:1042E00042E800310029F3D1036B012B05D02023D4
:1042F00080F84230002303637047026802F10C0328
:1043000053E8003F23F010030C3242E8003100294B
:10431000F3D1ECE790F84130DBB2212B01D0022041
:1043200070478368B3F5805F17D0036A5A1C026236
:104330001A7803685A60C38C9BB2013B9BB2C3845A
:104340004BB90268D36823F08003D3600268D36856
:1043500043F04003D360002070470369002BE4D191
:10436000036A1B880268C3F308035360036A0233BD
:104370000362E0E710B504460268136923F4405372
:10438000C1680B431361836802691A4343691A4386
:10439000C3691A430168CB6823F4164323F00C0366
:1043A0001343CB600268536923F4407381690B4364
:1043B00053610368314A934206D002F5806293420A
:1043C00002D0FEF783FC01E0FEF790FCE369B3F551
:1043D000004F29D00021031849411B1841F1000169
:1043E000C90041EA5371DB00181863684FEA830281
:1043F0004FEA937341F10001FCF718FC204AA2FB3D
:1044000000314909642303FB11031B013233A2FB72
:1044100003235B0903F0F00202EB011203F00F0328
:10442000216813448B6010BD0023021843EB030185
:10443000121841F10001C90041EA5271D20010186E
:1044400041F10001626892185B41FCF7EFFB0C4AF6
:10445000A2FB00314909642303FB1103DB00323363
:10446000A2FB03235B095A0002F4F87202EB01126B
:1044700003F00703216813448B60D4E70010014068
:104480001F85EB512DE9F04383B005460E461746D4
:104490009946DDF828802B681C6836EA04040CBFB6
:1044A00001240024BC4228D1B8F1FF3FF3D0FFF72C
:1044B00087F8A0EB0900404523D8B8F1000F22D0BF
:1044C0002B68DA6812F0040FE5D0802EE3D0402E7E
:1044D000E1D01A6812F0080FDDD0002401941A68A8
:1044E00001925B680193019B2846FFF7E5FE0823D4
:1044F0006B6485F84040012000E0002003B0BDE877
:10450000F0830320FAE70320F8E760B310B5044610
:1045100090F8413013B3242384F841302268D368E3
:1045200023F40053D3602046FFF724FF2268136969
:1045300023F4904313612268536923F02A035361E3
:104540002268D36843F40053D360002060642023C2
:1045500084F8413084F84230606310BD80F8403008
:10456000FDF736FCD7E7012070472DE9F04182B016
:104570001E4690F84130DBB2202B56D104460D4642
:104580009046002955D00AB901204FE0002343642A
:10459000212380F84130FFF713F80746A4F8248060
:1045A000A4F82680A368B3F5805F02D04FF000081E
:1045B00014E023692BB34FF000080FE0202384F8A8
:1045C0004130032032E038F8023B2268C3F308038D
:1045D0005360E28C92B2013A92B2E284E38C9BB2D5
:1045E00093B100963B46002280212046FFF74AFF08
:1045F0000028E3D1002DE6D015F8012B23685A607E
:10460000E7E7A8460025E9E700963B46002240215F
:104610002046FFF737FF18B9202384F8413005E022
:10462000202384F84130032000E0022002B0BDE8DE
:10463000F0810120FAE72DE9F04182B01E4690F8A2
:104640004230DBB2202B59D104460D46904600295A
:1046500058D00AB9012052E000234364222280F896
:1046600042200363FEF7ACFF0746A4F82C80A4F8B1
:104670002E80A368B3F5805F02D04FF000081CE0E5
:10468000236913B14FF0000817E0A846002514E095
:10469000202384F84230032031E023685B68C3F3B1
:1046A000080328F8023B03E023685B682B700135A0
:1046B000E28D92B2013A92B2E285E38D9BB2C3B130
:1046C00000963B46002220212046FFF7DBFE002813
:1046D000DED1002DE1D0A368B3F5805FE4D013B93B
:1046E0002369002BE0D023685B6803F07F032B7005
:1046F000DDE7202384F84230002000E0022002B0F1
:10470000BDE8F0810120FAE738B5134690F8412062
:10471000D2B2202A2FD1044600292ED00BB9012075
:1047200038BD01628384C38400224264212084F85E
:104730004100A06B124DC563A06B124D0564A06BC8
:10474000114DC564A06B026522680432A06BFEF7B0
:10475000FBFC23686FF040021A60226802F1140328
:1047600053E8003F43F08003143242E8003100294F
:10477000F3D10020D4E70220D2E70120D0E700BF28
:10478000134800087B4800088B48000810B5044611
:1047900003685A6990F84130DBB2212B0AD02368B4
:1047A0005A6902F0400294F84230DBB2222B19D051
:1047B000002010BD02F08002002AF0D0226802F131
:1047C000140353E8003F23F08003143242E8003121
:1047D0000029F3D1A06B08B1FEF7EBFC2046FFF7F0
:1047E0005BFDDCE7002AE3D0226802F1140353E802
:1047F000003F23F04003143242E800310029F3D196
:10480000E06B08B1FEF7D5FC2046FFF755FDCFE77A
:10481000704708B50346806B1B681B6813F4807FE4
:104820001AD10023C384026802F1140353E8003F45
:1048300023F08003143242E800310029F3D10268EA
:1048400002F10C0353E8003F43F040030C3242E80E
:1048500000310029F3D108BDFFF7DAFFFBE708B507
:104860000168CA6822F04002CA60202280F8412014
:10487000FFF7CEFF002008BD704708B5806BFFF73B
:10488000FBFF08BD70477047704710B5846B236805
:104890005A6994F84130DBB2212B10D023685A6951
:1048A00002F0400294F84230DBB2222B11D0636C4C
:1048B00043F0100363642046FFF7E6FF10BD02F0EB
:1048C0008002002AEAD00023E3842046FFF7E4FCBC
:1048D000E4E7002AEBD00023E3852046FFF7ECFC59
:1048E000E5E708B5806B0023C385C384FFF7CCFFE1
:1048F00008BD704790F84230DBB2222B69D1836843
:10490000B3F5805F4FD0826AB3F5805F04D0002B8F
:1049100056D10369002B53D103685B681370836A17
:1049200001338362C38D9BB2013B9BB2C385002BD5
:1049300051D100B583B00268D36823F02003D3605F
:104940000268D36823F48073D3600268536923F04C
:1049500001035361202380F8423000234363036B3B
:10496000012B33D100230363026802F10C0353E8E7
:10497000003F23F010030C3242E800310029F3D14C
:1049800003681A6812F0100F06D0002201921A680C
:1049900001925B680193019B818DFFF7AAFF0020C4
:1049A00003B05DF804FB0269002AACD1826A036897
:1049B0005B68C3F308031380836A02338362B1E741
:1049C00003685B6803F07F031370A8E7FFF75AFFE3
:1049D000E5E70220704700207047000030B583B043
:1049E000044602681368D068516913F00F0505D1B9
:1049F00013F0200F02D010F0200F19D12DB111F0BB
:104A0000010119D110F4907F16D1216B01297DD0BD
:104A100013F0800F03D010F0800F40F0198113F0D5
:104A2000400F03D010F0400F40F0168103B030BDAE
:104A30002046FFF75FFFF9E713F0010F06D010F4EF
:104A4000807F03D0626C42F00102626413F0040FB5
:104A500004D019B1626C42F00202626413F0020FDA
:104A600004D019B1626C42F00402626413F0080FC2
:104A700007D010F0200F00D119B1626C42F008028B
:104A80006264626C002AD1D013F0200F02D010F0C3
:104A9000200F29D123685B6903F04003626C12F098
:104AA000080F00D163B32046FFF706FC23685B695B
:104AB00013F0400F20D0226802F1140353E8003FA6
:104AC00023F04003143242E800310029F3D1E36BB4
:104AD00073B1634A1A65E06BFEF7B5FB0028A5D0F9
:104AE000E06B036D9847A1E72046FFF703FFD1E78E
:104AF0002046FFF7C9FE99E72046FFF7C5FE95E778
:104B00002046FFF7C1FE002363648FE713F0100F08
:104B10003FF47EAF10F0100F3FF47AAF0023019303
:104B20001368019353680193019B536913F0400F7D
:104B300052D0E26B13685B689BB2002B3FF476AFF8
:104B4000A18D99427FF672AFE385D369B3F5807F7B
:104B500037D0226802F10C0353E8003F23F480733E
:104B60000C3242E800310029F3D1226802F114032B
:104B700053E8003F23F00103143242E800310029DA
:104B8000F3D1226802F1140353E8003F23F04003FD
:104B9000143242E800310029F3D1202384F8423056
:104BA00000232363226802F10C0353E8003F23F043
:104BB00010030C3242E800310029F3D1E06BFEF71C
:104BC000F8FA02236363A18DE38D9BB2C91A89B2FF
:104BD0002046FFF78EFE29E7A18DE38D9BB2C91A0F
:104BE00089B2E38D9BB2002B3FF420AF00293FF444
:104BF0001DAF226802F10C0353E8003F23F49073C9
:104C00000C3242E800300028F3D1226802F114038C
:104C100053E8003F23F00103143242E8003000283B
:104C2000F3D1202384F8423000232363226802F169
:104C30000C0353E8003F23F010030C3242E800302D
:104C40000028F3D1022363632046FFF752FEEDE60E
:104C50002046FFF75FFBE9E62046FFF700FEE5E6AA
:104C6000E348000808B5806B01234363036B012B05
:104C700002D0FFF708FE08BD818D4908FFF739FE15
:104C8000F9E708B50346806B1B681B6813F4807F47
:104C90002BD10023C385026802F10C0353E8003FC7
:104CA00023F480730C3242E800310029F3D102680A
:104CB00002F1140353E8003F23F00103143242E8E9
:104CC00000310029F3D1026802F1140353E8003FD8
:104CD00023F04003143242E800310029F3D12023AD
:104CE00080F84230036B012B07D000234363036B32
:104CF000012B0FD0FFF7C6FD08BD026802F10C03BF
:104D000053E8003F23F010030C3242E80031002941
:104D1000F3D1EAE7818DFFF7ECFDEDE730B583B025
:104D2000044613468162828500254564222280F86C
:104D30004220C26B1F48D063E26B1F481064E26BD5
:104D40001E48D064E26B156520680A46011DE06BC1
:104D5000FEF7FAF9019523681A6801925B680193DE
:104D6000019B23695BB1226802F10C0353E8003F09
:104D700043F480730C3242E800310029F3D12268F9
:104D800002F1140353E8003F43F00103143242E8F8
:104D900000310029F3D1226802F1140353E8003FE7
:104DA00043F04003143242E800310029F3D10020DF
:104DB00003B030BD834C0008654C00088B480008E8
:104DC00008B590F84230DBB2202B08D149B10AB9BE
:104DD000012008BD00230363FFF7A0FFF9E70220CD
:104DE000F7E70120F5E70000034AD2F8883043F4E2
:104DF0007003C2F88830704700ED00E000F108034E
:104E000043604FF0FF328260C360036100230360A0
:104E1000704700230361704743684B609A688A605B
:104E2000516099600861036801330360704730B4D2
:104E30000D68B5F1FF3F11D000F108031C465B6817
:104E40001A68AA42FAD963684B6099608C60616005
:104E5000086103680133036030BC70470469F2E7FE
:104E60000369416882688A60416851605A68824279
:104E700006D0002202611A68013A1A601868704769
:104E800082685A60F5E710B5044601F0CBFCA26BCE
:104E9000E36B9A4204D0002401F0E6FC204610BDEA
:104EA0000124F9E710B5044601F0BCFCA36B23B95B
:104EB000012401F0D9FC204610BD0024F9E770B5AB
:104EC00004461546866B026C5AB903681BB1002074
:104ED0000136A66370BD806800F0EEFF0023A3607A
:104EE000F6E76DB9406802F022FA226C6368134459
:104EF0006360A268934219D3236863602846E7E79A
:104F0000C06802F014FA226C5142E3689B1AE36015
:104F10002268934202D2A3680B44E360022D01D0C1
:104F20000020D5E726B1013E0020D1E72846CFE793
:104F30000020CDE70346026C6AB110B50846D96877
:104F40001144D9609C68A14201D31968D960D9681D
:104F500002F0EDF910BD704738B5054601F062FC6E
:104F600095F8454064B201E0013C64B2002C0ADDD2
:104F70006B6A43B105F1240000F0D8FE0028F3D09D
:104F800000F084FFF0E7FF2385F8453001F06CFC6A
:104F900001F048FC95F8444064B201E0013C64B281
:104FA000002C0ADD2B6943B105F1100000F0BEFEB4
:104FB0000028F3D000F06AFFF0E7FF2385F84430C3
:104FC00001F052FC38BD38B5E0B10D46044601F0A1
:104FD00029FC2368E26B216C01FB0230A0600020F9
:104FE000A0636360013A02FB0133E360FF2384F8AE
:104FF000443084F84530FDB9236963B901F034FCCD
:10500000012038BD4FF0500383F31188BFF36F8F39
:10501000BFF34F8FFEE704F1100000F087FE002879
:10502000ECD04FF0E0234FF08052C3F8042DBFF3D3
:105030004F8FBFF36F8FE1E704F11000FFF7DEFE43
:1050400004F12400FFF7DAFED8E738B51D46049CCA
:105050000B4649B92460E063236401212046FFF731
:10506000B2FF84F84C5038BD2260F4E740B94FF0ED
:10507000500383F31188BFF36F8FBFF34F8FFEE7A9
:1050800010B584B01C46844653B192B189B94FF033
:10509000500383F31188BFF36F8FBFF34F8FFEE789
:1050A0004FF0500383F31188BFF36F8FBFF34F8F1F
:1050B000FEE76AB150230393039B502B13D04FF0AC
:1050C000500383F31188BFF36F8FBFF34F8FFEE759
:1050D0000029EFD04FF0500383F31188BFF36F8F97
:1050E000BFF34F8FFEE7039B012384F84630009403
:1050F0009DF818306046FFF7A8FF204604B010BDA9
:10510000F0B585B0019288B10F461D460446B1B195
:10511000022D20D1E36B012B1DD04FF0500383F300
:105120001188BFF36F8FBFF34F8FFEE74FF050032F
:1051300083F31188BFF36F8FBFF34F8FFEE7036CCC
:10514000002BE5D04FF0500383F31188BFF36F8F2E
:10515000BFF34F8FFEE700F09FFE064658B9019B54
:10516000002B48D04FF0500383F31188BFF36F8FAB
:10517000BFF34F8FFEE700263DE02A463946204622
:10518000FFF79DFE636A7BB948B14FF0E0234FF013
:105190008052C3F8042DBFF34F8FBFF36F8F01F020
:1051A00063FB012005B0F0BD04F1240000F0BEFD5A
:1051B0000028F4D04FF0E0234FF08052C3F8042DC4
:1051C000BFF34F8FBFF36F8FE9E701F04DFB002076
:1051D000E8E702A800F00CFE012619E0002384F89D
:1051E000443021E0002384F8453023E02046FFF7D7
:1051F000B3FE00F07BFC01F015FBA26BE36B9A425F
:10520000BBD3022DB9D0019B002BDED0002EE0D005
:1052100001F02AFB00F0D0FB01F004FB94F84420DD
:1052200052B2B2F1FF3FD9D094F8452052B2B2F158
:10523000FF3FD7D001F018FB01A902A800F0E4FD60
:10524000D8B92046FFF71FFE0028CFD0019904F1FE
:10525000100000F037FD2046FFF77EFE00F046FC10
:105260000028C8D14FF0E0234FF08052C3F8042D3E
:10527000BFF34F8FBFF36F8FBDE72046FFF76CFE84
:1052800000F034FC00208DE72DE9F84390B10F4683
:1052900016461C460546B1B1022C20D1EB6B012B02
:1052A0001DD04FF0500383F31188BFF36F8FBFF30E
:1052B0004F8FFEE74FF0500383F31188BFF36F8FDA
:1052C000BFF34F8FFEE7036C002BE5D04FF0500388
:1052D00083F31188BFF36F8FBFF34F8FFEE701F0A9
:1052E000C7FBEFF311884FF0500383F31188BFF32E
:1052F0006F8FBFF34F8FAA6BEB6B9A4206D3022CD2
:1053000004D0002088F31188BDE8F88395F8459013
:105310004FFA89F9AB6B224639462846FFF7CFFD95
:10532000B9F1FF3F06D009F101035BB285F84530C2
:105330000120E7E76B6A0BB90120E3E705F12400E0
:1053400000F0F4FC18B126B101203060DAE701204A
:10535000D8E70120D6E7F0B585B0019290B10F46AD
:105360000446C1B100F098FD064600BB019B002B2E
:105370005ED04FF0500383F31188BFF36F8FBFF3FC
:105380004F8FFEE74FF0500383F31188BFF36F8F09
:10539000BFF34F8FFEE7036C002BE3D04FF05003B9
:1053A00083F31188BFF36F8FBFF34F8FFEE70026A3
:1053B0003EE039462046FFF7BDFD013DA563236968
:1053C00023B901F051FA012005B0F0BD04F110003D
:1053D00000F0ACFC0028F4D04FF0E0234FF08052F6
:1053E000C3F8042DBFF34F8FBFF36F8FE9E701F0D0
:1053F0003BFA0020E8E702A800F0FAFC012621E0D1
:10540000002384F8443029E0002384F845302BE061
:105410002046FFF7A1FD00F069FB09E02046FFF7F9
:105420009BFD00F063FB2046FFF73CFD00283FD1C9
:1054300001F0F8F9A56B002DBBD1019B002BD6D054
:10544000002ED8D001F010FA00F0B6FA01F0EAF917
:1054500094F844305BB2B3F1FF3FD1D094F84530BB
:105460005BB2B3F1FF3FCFD001F0FEF901A902A872
:1054700000F0CAFC0028D1D12046FFF713FD002818
:10548000C6D0019904F1240000F01CFC2046FFF76F
:1054900063FD00F02BFB0028CAD14FF0E0234FF052
:1054A0008052C3F8042DBFF34F8FBFF36F8FBFE758
:1054B000002089E70023072B0CD8074A52F8332035
:1054C0000AB10133F7E7044A42F8331002EBC30292
:1054D00050607047704700BF6035002070B50446CB
:1054E0000D46164601F09EF994F844305BB2B3F1D4
:1054F000FF3F0DD094F845305BB2B3F1FF3F0BD0C6
:1055000001F0B2F9A36B5BB12046FFF725FD70BD3A
:10551000002384F84430EDE7002384F84530EFE7BA
:105520003246294604F1240000F0E4FBECE70000D9
:10553000084B1B681B6823B9074B4FF0FF321A60FA
:105540007047044B1B68DB68DB685A68024B1A60C3
:10555000704700BFA43500204C3A00202DE9F047E9
:1055600080460D4617469946089EDDF824A00A9C01
:105570009200A521206B01F05EFE236B07F18042B3
:10558000013A03EB820727F00707A5B34FF0000CA1
:10559000BCF10F0F09D815F80C3004EB0C0282F89F
:1055A000343013B10CF1010CF2E7002384F84330DE
:1055B000372E00D93726E662E66400252565201DD2
:1055C000FFF727FC04F11800FFF723FC2461C6F164
:1055D0003806A6616462656584F858504A464146BB
:1055E000384601F0F7F82060BAF1000F01D0CAF890
:1055F0000040BDE8F087002384F83430D8E700008D
:1056000038B5002407E004EB840293000E481844E8
:10561000FFF7F4FB0134372CF5D90C4D2846FFF782
:10562000EDFB0B4C2046FFF7E9FB0A48FFF7E6FBD2
:105630000948FFF7E3FB0948FFF7E0FB084B1D6053
:10564000084B1C6038BD00BFAC350020203A00205C
:10565000343A0020583A0020843A0020703A002062
:10566000A4350020A835002010B5044601F0DAF872
:10567000224A136801331360214B1B685BB1214B35
:105680001B686BB91E4B1B68DA6AE36A9A4207D83B
:105690001B4B1C6004E01A4B1C601368012B29D0C3
:1056A000194A1368013313606364E06A174B1B687F
:1056B000984201D9154B186000EB8000211D144B56
:1056C00003EB8000FFF7A8FB01F0CEF80D4B1B6841
:1056D0007BB10B4B1B68DA6AE36A9A4209D24FF03E
:1056E000E0234FF08052C3F8042DBFF34F8FBFF378
:1056F0006F8F10BDFFF784FFD2E700BF0C3A002088
:10570000A03500206C3A0020183A00201C3A0020F6
:10571000AC35002010B5044690F8593063B1012B28
:1057200011D0022B0ED04FF0500383F31188BFF33A
:105730006F8FBFF34F8FFEE7006B00F0CFFF204667
:1057400000F0CCFF10BD00F0C9FFFBE70F4B1B685A
:10575000D3B110B501F066F80D4BDB68DC68201D95
:10576000FFF77EFB0B4A1368013B1360074A13687F
:10577000013B136001F078F82046FFF7CBFF034BA5
:105780001B68002BE6D110BD704700BF103A002007
:10579000843A00200C3A002008B5FFF7D7FF074BEA
:1057A0001B68012BF9D94FF0E0234FF08052C3F86A
:1057B000042DBFF34F8FBFF36F8FEEE7AC350020A2
:1057C00070B504460D46174B1E68174B1868043019
:1057D000FFF746FBB4F1FF3F0DD03444124B1B687A
:1057E0005C60A64210D9114B18680F4B1968043140
:1057F000FFF71DFB70BD002DEFD00B4B1968043176
:105800000B48FFF709FBF5E70A4B1868064B1968C8
:105810000431FFF70CFB084B1B68A342EAD9064B87
:105820001C60E7E7983A0020A0350020A83500204A
:10583000703A0020A43500204C3A002030B587B0E3
:105840000B9C7CB10C9DB5B15C250495049D5C2D31
:105850001AD04FF0500383F31188BFF36F8FBFF35B
:105860004F8FFEE74FF0500383F31188BFF36F8F24
:10587000BFF34F8FFEE74FF0500383F31188BFF360
:105880006F8FBFF34F8FFEE7049D0C9D2C630224A6
:1058900085F8594000240394029505AC01940A9CB4
:1058A0000094FFF75BFE0C98FFF7DEFE059807B04B
:1058B00030BD2DE9F04385B00746884614461E46A4
:1058C000900000F08DFE00B381465C2000F088FE61
:1058D0000546B0B1C0F83090E5B1002385F85930E5
:1058E000039302950D9B01930C9B00933346224634
:1058F00041463846FFF732FE2846FFF7B5FE012045
:1059000005E0484600F0EAFEE6E74FF0FF3005B05C
:10591000BDE8F0834FF0FF30F9E7000010B588B024
:1059200000240594069407AA06A905A800F0DCFD4A
:10593000059B0293069B019300942346079A1849FE
:105940001848FFF77BFF184B186040B100F068FB68
:10595000012806D0B0F1FF3F18D008B010BD0020DC
:10596000F6E74FF0500383F31188BFF36F8FBFF357
:105970004F8F0E4B4FF0FF321A600D4B01221A6011
:105980000C4B00221A6000F0E7FFE6E74FF05003EF
:1059900083F31188BFF36F8FBFF34F8FFEE700BF14
:1059A000BC3F010899570008483A00204C3A0020B3
:1059B0006C3A0020983A0020024A136801331360C1
:1059C000704700BF143A0020014B1868704700BFB1
:1059D000983A0020F8B53A4B1B68002B69D1394B37
:1059E0001D6801351D60C5B9374B1B681B6843B185
:1059F0004FF0500383F31188BFF36F8FBFF34F8FC6
:105A0000FEE7314A1168314B186810601960304A5E
:105A1000136801331360FFF78BFD2E4B1B68AB42FD
:105A20003DD900272C4B1B68DB6A03EB83039A00EC
:105A30002A4B9B58012B00D90127294B1B68002BAF
:105A40003CD001273AE001271F4B1B681B6843B37A
:105A50001D4B1B68DB68DC6863689D4226D3261DEE
:105A60003046FFF7FDF9A36A1BB104F11800FFF7F8
:105A7000F7F9E36A1B4A1268934201D9194A136085
:105A800003EB83039A00314614481044FFF7C4F92E
:105A9000E26A114B1B68DB6A9A42D4D2D4E7002732
:105AA000D2E70C4B4FF0FF321A60BBE7094A136094
:105AB000B8E70D4A13680133136000273846F8BD74
:105AC000143A0020983A0020A4350020A835002080
:105AD000503A00204C3A0020A0350020AC35002080
