:020000040800F2
:1000000000000320A55C0008191300081B1300085A
:100010001D1300081F130008211300080000000032
:10002000000000000000000000000000F154000883
:100030002313000800000000915500087F500008BD
:10004000F55C0008F55C0008F55C0008F55C00084C
:10005000F55C0008F55C0008F55C0008F55C00083C
:10006000F55C0008F55C0008F55C0008F55C00082C
:1000700025130008F55C000835130008F55C00083E
:10008000F55C0008F55C0008F55C0008F55C00080C
:10009000F55C0008F55C0008F55C0008F55C0008FC
:1000A000F55C000845130008F55C0008F55C0008E5
:1000B0005513000865130008F55C0008F55C00089E
:1000C000F55C0008F55C0008F55C0008F55C0008CC
:1000D000F55C0008F55C0008F55C00087513000885
:1000E000F55C0008F55C0008F55C0008F55C0008AC
:1000F000F55C0008F55C0008F55C0008F55C00089C
:10010000F55C0008F55C0008F55C0008F55C00088B
:10011000F55C0008F55C0008F55C0008F55C00087B
:10012000F55C0008F55C0008F55C0008F55C00086B
:10013000F55C0008F55C0008F55C0008F55C00085B
:10014000F55C0008F55C0008F55C0008F55C00084B
:10015000F55C0008F55C0008F55C0008F55C00083B
:10016000F55C0008F55C0008F55C0008F55C00082B
:10017000F55C0008F55C0008F55C00080000000074
:10018000F55C0008F55C0008F55C0008F55C00080B
:10019000F55C0008F55C0008F55C0008F55C0008FB
:0C01A000F55C0008F55C0008F55C000848
:1001B00010B5054C237833B9044B13B10448AFF3A1
:1001C00000800123237010BD00010020000000000A
:1001D000400A010808B5034B1BB103490348AFF3BC
:1001E000008008BD0000000004010020400A010852
:1001F00001F0FF01102A2BDB10F0070F08D010F8D8
:10020000013B013A8B422DD010F0070F42B3F6D1DB
:10021000F0B441EA012141EA014122F007047FF0F4
:1002200000070023F0E80256083C85EA010586EA4B
:10023000010685FA47F5A3FA87F586FA47F6A5FA87
:1002400087F68EB9EED1F0BC01F0FF0102F0070293
:1002500032B110F8013B013A83EA010313B1F8D13E
:100260000020704701387047002D06BF354603381F
:10027000073815F0010F07D1013015F4807F02BF58
:10028000013015F4C03F0130F0BC0138704700BFA9
:100290007BB972B90029BEBF00204FF0004106E0D3
:1002A00008BF00281CBF6FF000414FF0FF3000F086
:1002B000BBB9ADF1080C6DE904CE002909DB002BB8
:1002C0001ADB00F04DF8DDF804E0DDE9022304B0AC
:1002D0007047404261EB4101002B1BDB00F040F80E
:1002E000DDF804E0DDE9022304B0404261EB4101A6
:1002F000524263EB43037047524263EB430300F007
:100300002FF8DDF804E0DDE9022304B0404261EBA0
:1003100041017047524263EB430300F021F8DDF8DE
:1003200004E0DDE9022304B0524263EB430370476B
:1003300053B94AB9002908BF00281CBF4FF0FF314C
:100340004FF0FF3000F070B9ADF1080C6DE904CE4C
:1003500000F006F8DDF804E0DDE9022304B07047A0
:100360002DE9F047089E0D4604460F46002B4AD162
:100370008A42944665D9B2FA82F343B102FA03FC89
:10038000C3F120029F4020FA02F217439C404FEA3B
:100390001C4E1FFA8CF5B7FBFEF1220C0EFB1177F9
:1003A00042EA074201FB05F090420AD91CEB020227
:1003B00001F1FF3780F01C81904240F2198102392F
:1003C0006244121AA4B2B2FBFEF00EFB102244EA01
:1003D000024400FB05F5A5420AD91CEB040400F118
:1003E000FF3280F00781A54240F204816444023864
:1003F00040EA0140641B00211EB1DC400023C6E935
:100400000043BDE8F0878B4208D9002E00F0ED8054
:100410000021C6E900050846BDE8F087B3FA83F17C
:10042000002949D1AB4202D3824200F2F880841AFB
:1004300065EB030201201746002EE2D0C6E9004713
:10044000DFE702B9FFDEB2FA82F3002B40F09080C2
:100450008A1A4FEA1C471FFA8CFE0121B2FBF7F5FE
:1004600007FB1520220C42EA00420EFB05F09042E9
:1004700008D91CEB020205F1FF3802D2904200F2CB
:10048000CB804546121AA4B2B2FBF7F007FB10224C
:1004900044EA02440EFB00FEA64508D91CEB040406
:1004A00000F1FF3202D2A64500F2BB801046A4EB59
:1004B0000E0440EA05409FE7C1F120078B4022FA75
:1004C00007FC4CEA030C05FA01F420FA07F3FD409F
:1004D0004FEA1C492343B5FBF9F81FFA8CFE09FBD0
:1004E00018551C0C44EA054408FB0EF5A54202FA17
:1004F00001F200FA01F00BD91CEB040408F1FF3AF9
:1005000080F08880A54240F28580A8F1020864440A
:10051000641B9DB2B4FBF9F309FB134445EA0444A0
:1005200003FB0EFEA64508D91CEB040403F1FF35BE
:100530006CD2A6456AD9023B644443EA0843A3FB54
:100540000295A4EB0E04AC42C846AE4656D353D037
:1005500056B1B0EB080264EB0E0404FA07F7CA4088
:10056000CC401743C6E9007418460021BDE8F08767
:10057000C3F1200102FA03FC20FA01F225FA01F18D
:100580009D402A434FEA1C471FFA8CFEB1FBF7F04F
:1005900007FB1015110C41EA054100FB0EF58D42D9
:1005A00004FA03F408D91CEB010100F1FF382FD243
:1005B0008D422DD902386144491B92B2B1FBF7F547
:1005C00007FB151142EA014205FB0EF1914208D9E1
:1005D0001CEB020205F1FF3816D2914214D9023DFC
:1005E0006244521A45EA004138E73146304608E78E
:1005F0003946E6E61046FBE64845A9D2B9EB0208C3
:1006000065EB0C0E013BA3E74546EAE72B4694E772
:100610004046D1E7D0467BE7023D624432E70846D8
:100620000AE76444023842E7704700BF10F8012B24
:1006300011F8013B012A28BF9A42F7D0D01A70471F
:10064000034613F8012B002AFBD1181A0138704712
:1006500010B51446134692B2034802F060FE08B982
:10066000204610BD0020FCE72431002008B50268B8
:10067000034B9A4200D008BD01F070FEFBE700BFBB
:100680000000014072B6FEE700B595B030220021AF
:1006900008A805F048FC00230393049305930693F0
:1006A00007930193234A116C41F080511164126C3D
:1006B00002F080520192019A02931F4B1A6842F491
:1006C00040421A601B6803F440430293029B0123DB
:1006D00008934FF48033099302230E934FF4800262
:1006E0000F92082210924FF4B472119212930423C5
:1006F000139308A800F0B4FEB0B901F07FFDA8B9CB
:100700000F23039302230493002305934FF4A05374
:1007100006934FF480530793052103A801F00AF9CB
:1007200030B915B05DF804FBFFF7ACFFFFF7AAFF87
:10073000FFF7A8FF003802400070004008B501F044
:10074000F3FDFFF7A1FF00F069F800F0DBFA00F01D
:10075000FBFA00F095FB00F0E1FC00F035FD00F045
:10076000D1FB254801F024FF244C204601F020FF56
:100770000021204602F0E6FA214C204601F018FF45
:100780000021204602F0DEFA1E4C204601F010FF48
:100790000021204602F058FB4FF6FF732F221A4922
:1007A0001A4802F0BCFD1A4C00224FF4805120463A
:1007B00001F0B8FA00224FF40051204601F0B2FADD
:1007C00000224FF48041204601F0ACFA00220421BF
:1007D000204601F0A7FA002280210E4801F0A2FA7B
:1007E000002208210C4801F09DFA04F055FC00F0AD
:1007F0003BF904F063FCFEE744320020B4310020F2
:10080000FC3100206C310020000000202431002049
:1008100000140240000C0240001002402DE9F04F8D
:100820008FB0002409940A940B940C940D940194B5
:10083000824B1A6B42F010021A631A6B02F010021C
:100840000192019A02941A6B42F004021A631A6B25
:1008500002F004020292029A03941A6B42F0200200
:100860001A631A6B02F020020392039A04941A6B23
:1008700042F080021A631A6B02F080020492049A1A
:1008800005941A6B42F001021A631A6B02F001021E
:100890000592059A06941A6B42F002021A631A6BCB
:1008A00002F002020692069A07941A6B42F00802BE
:1008B0001A631A6B02F008020792079A08941A6BDF
:1008C00042F040021A631B6B03F040030893089B3D
:1008D000DFF8749122460821484601F023FA584F68
:1008E000224647F20401384601F01CFADFF85CB1F9
:1008F000224644F28101584601F014FADFF8508193
:1009000022464021404601F00DFA224680214D4802
:1009100001F008FA0823099301260A960B9602258E
:100920000C9509A9484601F0F9F84FF400530993D2
:100930004FF488130A930B94DFF818A109A95046C5
:1009400001F0ECF847F2040309930A960B960C9514
:1009500009A9384601F0E2F8322309930A950B946D
:1009600003270C974FF00B09CDF8349009A9504696
:1009700001F0D4F8862309930A950B940C97CDF8CF
:100980003490AAF5006A09A9504601F0C7F844F26C
:10099000810309930A960B940C9409A9584601F017
:1009A000BDF84FF4005309930A950B940C97CDF8BA
:1009B000349009A9584601F0B1F8402309930A96EA
:1009C0000B940C9409A9404601F0A8F84FF0800B55
:1009D000CDF824B00A940B9409A9404601F09EF882
:1009E0004FF4E85309930A950B940C970A230D933F
:1009F00009A9504601F092F84FF4007309930A9444
:100A00000B9409A9504601F089F8CDF824B00A9654
:100A10000B960C9509A90B4801F080F84FF4205370
:100A200009930A950B940C97CDF8349009A9404688
:100A300001F074F80FB0BDE8F08F00BF003802403D
:100A400000140240000C024000100240000402406A
:100A5000001802400008024008B50168014805F08E
:100A60000DFA08BD640A010808B5044A00210448CB
:100A700004F040FB034B186008BD00BFF80A0108F2
:100A8000550B00085830002010B546380C2814D8F3
:100A9000DFE800F0071313131313211313141313B8
:100AA0002E001A4C01224FF48051204601F03AF9F1
:100AB00000220421204601F035F910BD134C00221C
:100AC0004FF48051204601F02DF9012204212046E7
:100AD00001F028F9F1E70D4C01224FF48051204636
:100AE00001F020F901220421204601F01BF9E4E77E
:100AF000064C00224FF48051204601F013F90022E9
:100B00000421204601F00EF9D7E700BF001402408F
:100B100008B5552802D042280CD008BD00224FF459
:100B200000510A4801F0FEF800228021084801F037
:100B3000F9F8F2E701224FF40051044801F0F2F80D
:100B400001228021024801F0EDF8E6E7001402409E
:100B5000000C024010B5C8B04A4B01934A4B0093B9
:100B60004A4B4B4A4B49012006F0FEFD43A806F0D4
:100B70007BFB494B4393494B4493494B4593494B2A
:100B8000469343A806F07EFB00283AD002A806F060
:100B900099FB0DF1B00E0DF1080CBCE80F00AEE8AA
:100BA0000F00DCF80030CEF800302CAB00221146EC
:100BB00031A806F05FFA31AB3B4A3C492AA806F05F
:100BC000A7FA07F015FA0246394B2AA942A806F0FF
:100BD000DBFA07F00DFA0246364B2AA929A806F0DF
:100BE00007FB2CAB012232A908A806F075F90024F6
:100BF0000094314B3FAA29A908A806F0E1F93F94D7
:100C00001CE0C7212D4805F039F9BFE7F8212C4831
:100C100005F034F919E0A3F57A72B2F57A7F24D899
:100C2000284B42221A70284B1878FFF72DFF254BCE
:100C30001878FFF76DFF0A2004F0BAFA00223FA9E6
:100C400042A806F00FF90028E0D1204B1B68409322
:100C50001F4A12684192B3F57A7FDCDA1A4B4622BA
:100C60001A70184B55221A70DDE7A3F5FA63B3F535
:100C70007A7FD8D8144B4F221A70124B55221A7013
:100C8000D1E700BF2D5C0008EF5B0008E15B0008C6
:100C9000C95B000824310020655A0008855A000805
:100CA000A55A0008E55A0008841001089C0A0108AA
:100CB000A80A0108BC0A0108590A0008740A0108B8
:100CC000D00A010831000020300000205C300020F4
:100CD000603000200368B3F1804F00D07047037F7D
:100CE000012B06D0022BF9D1044A1368013313609B
:100CF000F4E703490A6801320A60F3E76030002034
:100D00005C30002010B582B0002401940D4B1A6BAA
:100D100042F400121A631B6B03F400130193019B4E
:100D2000224605210C2001F0B9FA0C2001F0EEFA60
:100D3000224605210E2001F0B1FA0E2001F0E6FA5C
:100D400002B010BD0038024008B50A480A4B0360E3
:100D50004FF4E133436000238360C36003610C22DE
:100D600042618361C36102F0AAFA00B908BDFFF7CE
:100D700089FCFBE7243100200048004030B589B0F1
:100D80000023039304930593069307930268364B5D
:100D90009A4201D009B030BD04460025019503F503
:100DA000F8331A6C42F480221A641A6C02F480221E
:100DB0000192019A02951A6B42F008021A631B6BAA
:100DC00003F008030293029B4FF440730393022342
:100DD0000493032306930723079303A9234800F0F2
:100DE0009DFE2348234B03604FF000634360856002
:100DF000C5604FF480630361456185614FF4807382
:100E0000C3614FF440330362456201F011F828BB1F
:100E1000174BE3639C631848184B03604FF0006363
:100E20004360402383600023C3604FF4806202610B
:100E300043618361C3614FF440320262436200F058
:100E4000F7FF70B90C4BA3639C6300220521272098
:100E500001F024FA272001F059FA9BE7FFF712FC72
:100E6000D6E7FFF70FFCEDE700480040000C02401A
:100E70006430002028600240C430002058600240E6
:100E800000B587B000230493059300930193029368
:100E900003931B484FF08042026009224260836046
:100EA0006422C2600361836101F03EFDD8B9002372
:100EB0000493059304A9124802F080F8B0B9002207
:100EC0000092012301930292039269460C4801F0BB
:100ED0003BFE70B904226946094801F035FE58B955
:100EE00007B05DF804FBFFF7CDFBE0E7FFF7CAFBB7
:100EF000E5E7FFF7C7FBEDE7FFF7C4FBF0E700BF4F
:100F00006C31002000B585B000230093019302935B
:100F100003931048104A026042F227324260836015
:100F200042F20F72C2600361836101F0A5FC50B907
:100F30004FF4805300936946064801F074FE28B9C7
:100F400005B05DF804FBFFF79DFBF1E7FFF79AFBA7
:100F5000F6E700BF443200200040014070B588B081
:100F60000023039304930593069307930368B3F157
:100F7000804F01D008B070BD0024009403F50E33FB
:100F80001A6C42F001021A641A6C02F0010200921B
:100F9000009A01941A6B42F001021A631A6B02F074
:100FA00001020192019A02941A6B42F002021A6342
:100FB0001B6B03F002030293029B0125039502269B
:100FC0000496079503A90B4800F0A8FD0823039396
:100FD000049605940694079503A9074800F09EFD22
:100FE000224605211C2001F059F91C2001F08EF940
:100FF000C0E700BF000002400004024000B585B019
:1010000003681D4A934208D01C4A934219D01C4AD7
:10101000934223D005B05DF804FB00220192194BE6
:10102000196C41F0020119641B6C03F00203019377
:10103000019B05211D2001F031F91D2001F066F909
:10104000E8E7002302930F4B1A6C42F004021A6483
:101050001B6C03F004030293029BDBE70023039362
:10106000084B5A6C42F480325A645B6C03F4803350
:101070000393039BCEE700BF00040040000800403C
:10108000004001400038024000B589B000230393BE
:10109000049305930693079303681B4A934205D074
:1010A0001A4A934218D009B05DF804FB002301935B
:1010B000174B1A6B42F001021A631B6B03F001031A
:1010C0000193019B4023039302230493079303A9F5
:1010D000104800F023FDE6E7002302930C4B1A6B47
:1010E00042F008021A631B6B03F008030293029B91
:1010F0004FF48053039302230493079303A90648F4
:1011000000F00CFDCFE700BF0004004000080040E5
:101110000038024000000240000C024000B58FB0D1
:1011200000230A930B930C930D9308930993019357
:101130000293039304930593069307932048214A4F
:1011400002605922426083606322C260036183614E
:1011500001F092FB28BB4FF480530A930AA9184868
:1011600001F061FD00BB164801F0B2FBF8B90023A5
:101170000893099308A9124801F020FFD0B9602311
:1011800001931E23029300220392059201A90C48A9
:1011900001F02EFC88B90A48FFF776FF0FB05DF822
:1011A00004FBFFF76FFAD6E7FFF76CFADBE7FFF710
:1011B00069FADCE7FFF766FAE1E7FFF763FAEAE7C7
:1011C000B43100200004004000B58FB000230A9322
:1011D0000B930C930D93089309930193029303933C
:1011E00004930593069307932048214A02605922ED
:1011F000426083606322C2600361836101F03CFB53
:1012000028BB4FF480530A930AA9184801F00BFD3C
:1012100000BB164801F05CFBF8B900230893099362
:1012200008A9124801F0CAFED0B9602301931E2319
:10123000029300220392059201A90C4801F0D8FB09
:1012400088B90A48FFF720FF0FB05DF804FBFFF7ED
:1012500019FAD6E7FFF716FADBE7FFF713FADCE730
:10126000FFF710FAE1E7FFF70DFAEAE7FC3100209B
:10127000000800400120704708B504F0A3FE1623C3
:1012800003604FF0FF3008BD08B54FF0FF31FFF7A6
:10129000F3FFFEE770B50C461646002506E0AFF3F7
:1012A0000080214601F8010B01350C46B542F6DB02
:1012B000304670BD08B503460D4A12685AB10C4A53
:1012C000106803440B4A11780B4A521A934206D80D
:1012D000074A136008BD064A08491160EFE700BEDF
:1012E00004F070FE0C2303604FF0FF30F2E700BF04
:1012F000903200200004000000000320680D01204F
:101300004FF0FF3070474FF400534B6000207047A0
:101310000120704700207047FEE7FEE7FEE7FEE78A
:10132000FEE7704708B5024800F07AFE08BD00BF2E
:101330006430002008B5024800F072FE08BD00BF0E
:10134000C430002008B5024801F07AF908BD00BF9A
:101350009432002008B5024801F072F908BD00BFC0
:101360006C31002008B5024801F06AF908BD00BFE1
:10137000B431002008B5024802F0A2F908BD00BF50
:101380002431002000B583B0002200920D4B596C2F
:1013900041F480415964596C01F4804100910099F5
:1013A0000192196C41F0805119641B6C03F0805359
:1013B0000193019B0F216FF0010000F06FFF03B05C
:1013C0005DF804FB0038024030B589B005460024C2
:1013D00001941E4B5A6C42F001025A645B6C03F09C
:1013E00001030193019B02A903A800F079FB00F01F
:1013F00067FB4300164AA2FB03239B0C013B1548E5
:10140000154A026040F2E732C260436004618460C2
:10141000846101F031FA044610B1204609B030BDB4
:101420000C4801F0C5F804460028F6D1192000F058
:101430006DFF0F2D01D90124EFE700222946192065
:1014400000F02CFF054B1D60E7E700BF00380240AD
:1014500083DE1B4394320020000001403C0000204A
:10146000002800F0E08170B582B00446036813F0F4
:10147000010F3BD09F4B9B6803F00C03042B2CD037
:101480009C4B9B6803F00C03082B21D06368B3F5D9
:10149000803F4FD0B3F5A02F52D0964B1A6822F45C
:1014A00080321A601A6822F480221A606368002B66
:1014B00050D000F05FFF05468E4B1B6813F4003FD1
:1014C00014D100F057FF401B6428F5D90320B1E187
:1014D000884B5B6813F4800FD8D0864B1B6813F4DD
:1014E000003F03D06368002B00F09F81236813F056
:1014F000020F54D07F4B9B6813F00C0F3ED07D4BF6
:101500009B6803F00C03082B33D0E368002B68D0F2
:10151000794B01221A6000F02DFF0546754B1B68C0
:1015200013F0020F54D100F025FF401B0228F5D91B
:1015300003207FE16F4A136843F480331360B5E7FB
:101540006C4B1A6842F480221A601A6842F48032A6
:101550001A60ABE700F00EFF0546664B1B6813F4FC
:10156000003FC3D000F006FF401B6428F5D90320DC
:1015700060E1604B5B6813F4800FC6D15D4B1B6864
:1015800013F0020F03D0E368012B40F05081594A59
:10159000136823F0F803216943EAC1031360236849
:1015A00013F0080F42D063696BB3534B0122C3F8A9
:1015B000802E00F0DFFE05464E4B5B6F13F0020FEE
:1015C00034D100F0D7FE401B0228F5D9032031E1C9
:1015D000484A136823F0F803216943EAC103136002
:1015E000DDE7454B00221A6000F0C4FE0546414B82
:1015F0001B6813F0020FD2D000F0BCFE401B022883
:10160000F5D9032016E13C4B0022C3F8802E00F0F0
:10161000B1FE0546374B5B6F13F0020F06D000F0AA
:10162000A9FE401B0228F5D9032003E1236813F02B
:10163000040F77D02F4B1B6C13F0805F33D1002346
:1016400001932C4B1A6C42F080521A641B6C03F00D
:1016500080530193019B0125284B1B6813F4807F65
:1016600023D0A368012B34D0052B38D0214B1A6F1F
:1016700022F001021A671A6F22F004021A67A368A7
:10168000002B3DD000F076FE06461A4B1B6F13F080
:10169000020F46D100F06EFE801B41F28833984263
:1016A000F3D90320C6E00025D6E7144A136843F4B3
:1016B0008073136000F05EFE0646104B1B6813F447
:1016C000807FCED100F056FE801B0228F5D9032082
:1016D000B0E0084A136F43F001031367CFE7054BEF
:1016E0001A6F42F004021A671A6F42F001021A6779
:1016F000C5E700BF003802400000474200700040CC
:1017000000F038FE0646524B1B6F13F0020F08D054
:1017100000F030FE801B41F288339842F3D9032059
:1017200088E0EDB9A369002B00F08380484A9268F5
:1017300002F00C02082A51D0022B17D0454B002290
:101740001A6600F017FE0446414B1B6813F0007F39
:1017500042D000F00FFE001B0228F5D9032069E0FB
:101760003B4A136C23F080531364DBE7394B0022B0
:101770001A6600F0FFFD0546354B1B6813F0007F2D
:1017800006D000F0F7FD401B0228F5D9032051E0F8
:10179000E369226A1343626A43EA8213A26A520827
:1017A000013A43EA0243E26A43EA0263284A536089
:1017B000284B01221A6600F0DDFD0446244B1B680D
:1017C00013F0007F06D100F0D5FD001B0228F5D9EB
:1017D00003202FE000202DE000202BE0012B2BD058
:1017E0001B4B5B6803F48001E269914226D103F050
:1017F0003F02216A8A4223D1616A47F6C0721A40C9
:10180000B2EB811F1ED103F44031A26A5208013AA3
:10181000B1EB024F18D103F07063E26AB3EB026FD1
:1018200014D1002006E001207047012002E00120D1
:1018300000E0002002B070BD0120FBE70120F9E7C5
:101840000120F7E70120F5E70120F3E70120F1E7A8
:10185000003802400000474208B5334B9B6803F054
:101860000C03042B5BD0082B5BD12F4B5A6802F082
:101870003F025B6813F4800F2CD02B4B5868C0F3E9
:1018800088104FEA401CBCEB000C6EEB0E0E4FEACA
:101890008E1343EA9C634FEA8C11B1EB0C0163EBAE
:1018A0000E03DB0043EA5173C90011EB000C43F156
:1018B0000003590200234FEA4C2041EADC51FEF7B5
:1018C00037FD194B5B68C3F3014301335B00B0FB89
:1018D000F3F027E0144B5868C0F388104FEA401C1F
:1018E000BCEB000C6EEB0E0E4FEA8E1343EA9C63CA
:1018F0004FEA8C11B1EB0C0163EB0E03DB0043EA02
:101900005173C90011EB000C43F10003990200234D
:101910004FEA8C2041EA9C51FEF70AFDD1E70348CB
:1019200000E0034808BD00BF0038024000127A0002
:101930000024F400002800F09B8070B50D4604469A
:101940004F4B1B6803F00F038B4208D2CBB24C4ABB
:101950001370136803F00F038B4240F08B802368F1
:1019600013F0020F17D013F0040F04D0454A936808
:1019700043F4E0539360236813F0080F04D0414A06
:10198000936843F4604393603E4A936823F0F00306
:10199000A1680B439360236813F0010F32D0636892
:1019A000012B21D09A1E012A25D9364A126812F03D
:1019B000020F61D033498A6822F0030213438B601F
:1019C00000F0D8FC06462F4B9B6803F00C036268BE
:1019D000B3EB820F16D000F0CDFC801B41F28833B0
:1019E0009842F0D9032042E0264A126812F4003FE0
:1019F000E0D101203BE0234A126812F0007FD9D1E8
:101A0000012034E01E4B1B6803F00F03AB4207D9E3
:101A1000EAB21B4B1A701B6803F00F03AB422DD1C7
:101A2000236813F0040F06D0164A936823F4E0539A
:101A3000E1680B439360236813F0080F07D0114A45
:101A4000936823F46043216943EAC1039360FFF77D
:101A500003FF0C4B9B68C3F303130B4AD35CD840C2
:101A60000A4B18600A4B1868FFF7AEFC002070BDE7
:101A7000012070470120FAE70120F8E70120F6E78E
:101A8000003C024000380240240B010840000020C6
:101A90003C000020014B1868704700BF4000002048
:101AA00008B5FFF7F7FF044B9B68C3F38223034A93
:101AB000D35CD84008BD00BF00380240340B010899
:101AC00008B5FFF7E7FF044B9B68C3F34233034AB3
:101AD000D35CD84008BD00BF00380240340B010879
:101AE0000F2303600B4B9A6802F0030242609A686E
:101AF00002F0F00282609A6802F4E052C2609B68D1
:101B0000DB0803F4E0530361034B1B6803F00F038E
:101B10000B60704700380240003C024000230F2B4E
:101B200000F2F68070B582B066E085684FEA430E39
:101B3000032404FA0EF425EA0405CC6804FA0EF432
:101B40002C438460446824EA02044A68C2F3001209
:101B50009A40224342605DE0DC08083450F82420BB
:101B600003F00705AD004FF00F0E0EFA05FE22EA56
:101B70000E0E0A69AA4042EA0E0240F824205DE0F7
:101B8000092200E0002202FA0EF22A430234614DDB
:101B900045F82420604A94686FEA0C0224EA0C0598
:101BA0004E6816F4801F01D04CEA04055A4CA5601B
:101BB000E46802EA04054E6816F4001F01D04CEAFE
:101BC0000405554CE560646802EA04054E6816F4A5
:101BD000003F01D04CEA04054F4C65602468224068
:101BE0004D6815F4803F01D04CEA04024A4C226053
:101BF00001330F2B00F28A8001229A400C6804EA1C
:101C0000020C32EA0404F3D14C6804F00304013CF2
:101C1000012C8AD94A6802F00302032A09D0C46859
:101C20005D000322AA4024EA02048A68AA402243F3
:101C3000C2604A6802F00302022A8DD004684FEAAB
:101C4000430E032202FA0EF224EA02044A6802F06A
:101C5000030202FA0EF2224302604A6812F4403F85
:101C6000C6D0002201922D4A546C44F4804454643E
:101C7000526C02F480420192019A9C08A51C254AEC
:101C800052F8255003F0030E4FEA8E0E0F2202FA8F
:101C90000EF225EA0205224A90423FF473AF02F5A4
:101CA0008062904222D002F58062904220D002F5FC
:101CB000806290421ED002F5806290421CD002F5F4
:101CC000806290421AD002F58062904218D002F5EC
:101CD0008062904216D002F58062904214D002F5E4
:101CE000806290423FF44CAF0A224CE701224AE75F
:101CF000022248E7032246E7042244E7052242E79E
:101D0000062240E707223EE708223CE702B070BD0A
:101D1000704700BF00380140003C014000380240DD
:101D2000000002400AB18161704709048161704777
:101D300030B405682C6824F480242C600468636047
:101D40008368402B05D0036899600368DA6030BC73
:101D5000704703689A600368D960F8E710B40368B5
:101D6000D9B210390C4AA2FB014212090B4CA25CF9
:101D7000C2655F2909D923F47F7323F00303043379
:101D80008365806D5DF8044B704723F47F7323F007
:101D900003038365F5E700BFABAAAAAA1C0B0108E1
:101DA000836A826992B9012B0AD0022B02D00BB14F
:101DB00000207047C36A13F0807F28D1002070474D
:101DC000C36AB3F1C07F24D000207047B2F5005F32
:101DD00009D0022B25D9032B25D1C36A13F0807FAC
:101DE00023D100207047032B03D8DFE803F014044D
:101DF000140A00207047C36A13F0807F0DD10020C1
:101E00007047C36AB3F1C07F09D00020704701203A
:101E10007047012070470120704701207047012062
:101E20007047012070470020704701207047000074
:101E300070B5044600F09EFA002C5BD005460223E4
:101E400084F83530002384F834302268136823F096
:101E50000103136023681A6812F0010F0AD000F022
:101E600089FA431B052BF5D920236365032084F8E9
:101E7000350070BD1A68204911406268A0680243AD
:101E8000E06802432069024360690243A06902439B
:101E9000E0690243206A02430A43616A04291ED0B2
:101EA0001A602668756925F00705636A1D43042BCF
:101EB00007D1A36A1D43E36A1BB12046FFF770FFF9
:101EC00090B975612046FFF749FFE26D3F239340CB
:101ED000836000206065012384F83530C9E7E16A3A
:101EE000206B01430A43DBE740236365012084F84C
:101EF0003500BEE70120BCE73F8010F038B504464E
:101F0000856D90F8340001282BD0012084F834002E
:101F100094F83500C0B2012804D0002384F834308E
:101F2000022038BD022084F835000020606520467C
:101F3000FFF7FEFEE26D3F239340AB60226813681B
:101F400043F016031360236C23B12268136843F037
:101F5000080313602268136843F001031360002034
:101F6000DFE70220DDE770B50446866D00F002FA77
:101F700094F83530DBB2022B06D080236365002352
:101F800084F83430012070BD05462268136823F0C0
:101F9000160313602268536923F080035361236C96
:101FA000E3B12268136823F0080313602268136802
:101FB00023F00103136023681B6813F0010F11D095
:101FC00000F0D8F9431B052BF5D9202363650320C6
:101FD00084F83500002384F83430D4E7A36C002B58
:101FE000DFD1E3E7E26D3F239340B360012384F840
:101FF0003530002084F83400C5E790F83530DBB286
:10200000022B03D08023436501207047052380F80D
:1020100035300268136823F0010313600020704715
:10202000F0B583B0044600230193724B1D68724BD8
:10203000A3FB0535AD0A876D3E68C26D082393404A
:10204000334210D003681A6812F0040F0BD01A68DC
:1020500022F004021A60C26D08239340BB60436DF6
:1020600043F001034365E26D01239340334209D0FD
:102070002268526912F0800F04D0BB60636D43F098
:1020800002036365E26D04239340334209D0226862
:10209000126812F0020F04D0BB60636D43F00403BA
:1020A0006365E26D10239340334224D022681268A6
:1020B00012F0080F1FD0BB6023681A6812F4802F3B
:1020C0000DD01B6813F4002F04D1236C9BB1204664
:1020D000984710E0A36C73B1204698470BE01A684C
:1020E00012F4807F03D11A6822F008021A60236C70
:1020F0000BB120469847E26D20239340334255D0E0
:102100002268126812F0100F50D0BB6094F835307E
:10211000DBB2052B0ED023681A6812F4802F33D05F
:102120001B6813F4002F2AD1636C002B3ED020468D
:1021300098473BE02268136823F016031360226877
:10214000536923F080035361236CA3B122681368A1
:1021500023F008031360E26D3F239340BB6001232B
:1021600084F83530002384F83430236D002B3FD0C1
:10217000204698473CE0A36C002BE7D1EBE7E36BEC
:10218000A3B12046984711E01A6812F4807F09D164
:102190001A6822F010021A60012384F835300023F7
:1021A00084F83430E36B0BB120469847636DFBB184
:1021B000636D13F0010F17D0052384F835302268C2
:1021C000136823F001031360019B01330193AB42B9
:1021D00004D823681B6813F0010FF5D1012384F89C
:1021E0003530002384F83430E36C0BB12046984737
:1021F00003B0F0BD40000020B5814E1B10B582B089
:1022000000230193194B1A6C42F080521A641B6C24
:1022100003F080530193019B154B01221A6400F0D7
:10222000A9F80446134B5B6813F4803F08D100F013
:10223000A1F8001BB0F57A7FF4D9032002B010BDDD
:102240000B4B01225A6400F095F80446094B5B6879
:1022500013F4003F07D100F08DF8001BB0F57A7F32
:10226000F4D90320EAE70020E8E700BF0038024085
:1022700000000E4200700040074AD36823F4E06378
:102280001B041B0C000200F4E060034343F0BF6337
:1022900043F40033D360704700ED00E000B5194B04
:1022A000DB68C3F30223C3F1070CBCF1040F28BFA2
:1022B0004FF0040C03F1040EBEF1060F18D9033BD6
:1022C0004FF0FF3E0EFA0CFC21EA0C0199400EFA89
:1022D00003FE22EA0E020A4300280BDB1201D2B2EF
:1022E00000F1604000F5614080F800235DF804FBD8
:1022F0000023E5E700F00F001201D2B2024B1A549E
:10230000F4E700BF00ED00E014ED00E0002807DB7B
:1023100000F01F02400901239340024A42F8203096
:10232000704700BF00E100E008B50B4B1A6842F4AB
:1023300000721A601A6842F480621A601A6842F4E5
:1023400080721A600320FFF797FF0F20FFF73CF819
:10235000FFF718F8002008BD003C0240034A11684E
:10236000034B1B780B441360704700BFDC32002026
:1023700038000020014B1868704700BFDC32002095
:1023800030B4036A026A22F0010202624268846980
:1023900024F0730C0C6844EA0C0423F0020C8B68E4
:1023A00043EA0C03114DA84203D005F58065A8420D
:1023B00005D123F00803CD682B4323F004030B4D14
:1023C000A84203D005F58065A84207D122F44072E7
:1023D0004D6945EA020C8A6942EA0C024260846156
:1023E0004A684263036230BC704700BF000001408E
:1023F00030B4036A026A22F4807202624268C469DD
:1024000024F0730C0C6844EA0C0523F400738C6808
:1024100043EA0423114CA04203D004F58064A04297
:1024200006D123F40063CC6843EA042323F48063D9
:102430000A4CA04203D004F58064A04207D122F4E4
:1024400040524C6942EA04128C6942EA041242602A
:10245000C5614A68C263036230BC70470000014036
:1024600030B4036A026A22F4805202624468C2698C
:1024700022F4E6420D6842EA052223F400538D68F7
:1024800043EA0533094DA84203D005F58065A8420B
:1024900004D124F480444D6944EA85144460C26147
:1024A0004A680264036230BC704700BF000001400C
:1024B00010B4036A046A24F001040462846924F0FD
:1024C000F00C4CEA021223F00A030B438261036210
:1024D0005DF8044B704730B4056A046A24F01004B8
:1024E0000462846924F4407C4CEA022C2CF4704C85
:1024F0001B039BB243EA0C0325F0A005090101F080
:10250000A00129438361016230BC704710B4036AA3
:10251000046A24F010040462846924F4704C4CEAC8
:10252000023223F0A00343EA0113826103625DF8E3
:10253000044B704730B4056A046A24F48074046262
:10254000C46924F0030C4CEA020C2CF0F00C1B01C3
:10255000DBB243EA0C0325F42065090201F4206193
:102560002943C361016230BC704730B4056A046A14
:1025700024F480540462C46924F4407C4CEA022CA4
:102580002CF4704C1B039BB243EA0C0325F420454A
:10259000090301F420412943C361016230BC704743
:1025A000836823F070030B4343F007038360704795
:1025B00090F83D30DBB2012B37D1022380F83D305B
:1025C0000268D36843F00103D3600368194A934259
:1025D00020D0B3F1804F1DD0A2F57C42934219D098
:1025E00002F58062934215D002F58062934211D0C9
:1025F00002F5784293420DD002F57052934209D011
:10260000A2F59432934205D01A6842F001021A6092
:10261000002070479A6802F00702062A07D01A685D
:1026200042F001021A60002070470120704700202C
:10263000704700BF00000140704770477047704707
:1026400070B504460368DE681D6915F0020F10D0EE
:1026500016F0020F0DD06FF002021A61012303770A
:1026600003689B6913F0030F5ED0FEF733FB002372
:10267000237715F0040F12D016F0040F0FD0236843
:102680006FF004021A610223237723689B6913F415
:10269000407F4FD02046FEF71DFB0023237715F027
:1026A000080F12D016F0080F0FD023686FF0080241
:1026B0001A61042323772368DB6913F0030F40D0EA
:1026C0002046FEF707FB0023237715F0100F12D0EA
:1026D00016F0100F0FD023686FF010021A61082354
:1026E00023772368DB6913F4407F31D02046FEF75F
:1026F000F1FA0023237715F0010F02D016F0010F35
:102700002DD115F0800F02D016F0800F2FD115F0CB
:10271000400F02D016F0400F31D115F0200F02D03B
:1027200016F0200F33D170BDFFF787FF2046FFF76B
:1027300085FF9CE72046FFF780FF2046FFF77EFFDE
:10274000ABE72046FFF779FF2046FFF777FFBAE7B0
:102750002046FFF772FF2046FFF770FFC9E72368A6
:102760006FF001021A612046FDF780FFC9E7236878
:102770006FF080021A61204600F067FCC7E723680B
:102780006FF040021A612046FFF759FFC5E7236842
:102790006FF020021A61204600F056FCC3E70000EB
:1027A0000368344A904212D0B0F1804F0FD0A2F5A6
:1027B0007C4290420BD002F58062904207D002F535
:1027C0008062904203D002F57842904203D123F018
:1027D00070034A681343274A90422AD0B0F1804FD1
:1027E00027D0A2F57C42904223D002F5806290422D
:1027F0001FD002F5806290421BD002F578429042D1
:1028000017D002F57052904213D002F580629042C8
:102810000FD002F5806290420BD0A2F59832904220
:1028200007D002F58062904203D002F580629042A8
:1028300003D123F44073CA68134323F080034A6929
:10284000134303608B68C3620B688362094B984231
:1028500003D003F58063984201D10B690363012320
:102860004361036913F0010F03D0036923F00103EF
:10287000036170470000014040B310B5044690F872
:102880003D30F3B1022384F83D30214651F8040B6A
:10289000FFF786FF012384F8463084F83E3084F841
:1028A0003F3084F8403084F8413084F8423084F876
:1028B000433084F8443084F8453084F83D300020BB
:1028C00010BD80F83C30FEF799FBDBE70120704734
:1028D00040B310B5044690F83D30F3B1022384F8BC
:1028E0003D30214651F8040BFFF75AFF012384F8CD
:1028F000463084F83E3084F83F3084F8403084F825
:10290000413084F8423084F8433084F8443084F80D
:10291000453084F83D30002010BD80F83C30FFF792
:102920008BFEDBE70120704740B310B5044690F8FA
:102930003D30F3B1022384F83D30214651F8040BB9
:10294000FFF72EFF012384F8463084F83E3084F8E8
:102950003F3084F8403084F8413084F8423084F8C5
:10296000433084F8443084F8453084F83D3000200A
:1029700010BD80F83C30FEF7F1FADBE7012070472C
:1029800030B4036A026A22F010020262446882696B
:1029900022F4E6420D6842EA052223F020038D6806
:1029A00043EA0513114DA84203D005F58065A842FE
:1029B00006D123F08003CD6843EA051323F04003DA
:1029C0000A4DA84203D005F58065A84207D124F43A
:1029D00040644D6944EA85048D6944EA8504446095
:1029E00082614A688263036230BC70470000014024
:1029F00038B590F83C30012B66D004460D460123D3
:102A000080F83C300C2A5AD8DFE802F007595959AF
:102A10001B5959593059595944000068FFF7B0FC07
:102A20002268936943F0080393612268936923F055
:102A3000040393612268936929690B439361002021
:102A40003EE00068FFF79CFF2268936943F400634F
:102A500093612268936923F4806393612268936988
:102A6000296943EA01239361002029E00068FFF708
:102A7000BFFC2268D36943F00803D3612268D3699D
:102A800023F00403D3612268D36929690B43D3611E
:102A9000002015E00068FFF7E3FC2268D36943F4E7
:102AA0000063D3612268D36923F48063D361226811
:102AB000D369296943EA0123D361002000E00120A2
:102AC000002384F83C3038BD0220FCE770B4944603
:102AD000066A046A24F0010404628469184DA8425D
:102AE0001CD0B0F1804F19D0164A904216D002F592
:102AF0008062904212D002F5806290420ED002F5C0
:102B0000784290420AD002F57052904206D0A2F567
:102B10009432904202D044F0010203E024F0030218
:102B200042EA0C0222F0F0021B01DBB2134326F052
:102B30000A0201F00A0111438361016270BC70470F
:102B4000000001400004004038B590F83C30012BF3
:102B50005AD004460D46012380F83C3052B1042A75
:102B60001AD0082A2BD00C2A3BD00120002384F84D
:102B70003C3038BDCB684A6809680068FFF7A6FF9B
:102B80002268936923F00C03936122689369A96812
:102B90000B4393610020E9E7CB684A680968006845
:102BA000FFF799FC2268936923F4406393612268DC
:102BB0009369A96843EA012393610020D6E7CB68B3
:102BC0004A6809680068FFF7B5FC2268D36923F0FA
:102BD0000C03D3612268D369A9680B43D361002039
:102BE000C4E7CB684A6809680068FFF7BEFC226842
:102BF000D36923F44063D3612268D369A96843EAA7
:102C00000123D3610020B1E70220B2E710B4846849
:102C100024F47F4C42EA03220A4342EA0C02826017
:102C20005DF8044B704790F83C30012B78D010B51C
:102C30000446012380F83C30022380F83D300268CE
:102C4000936823F47F4323F0770393600B68602B32
:102C50004CD029D8402B54D00CD9502B22D1CA6843
:102C600049680068FFF724FC50212068FFF798FCB2
:102C7000002005E0202B0DD009D9302B0AD00120EF
:102C8000012384F83D30002384F83C3010BD0BB1A3
:102C9000102B05D119462068FFF782FC0020EFE7D2
:102CA0000120EDE70120EBE7B3F5805F34D0B3F509
:102CB000005F0CD1CB684A6889680068FFF7A6FFFF
:102CC0002268936843F4804393600020D8E7702B18
:102CD00024D1CB684A6889680068FFF797FF2268AB
:102CE000936843F0770393600020C9E7CA68496896
:102CF0000068FFF70BFC60212068FFF751FC002003
:102D0000BEE7CA6849680068FFF7D2FB4021206827
:102D1000FFF746FC0020B3E70020B1E70120AFE752
:102D20000220704701F01F014FF0010C0CFA01FC6A
:102D3000036A23EA0C030362036A8A4013430362B3
:102D40007047000010B504460846002942D194F8A7
:102D50003E30DBB2013B18BF0123002B6ED10028AF
:102D600051D1022384F83E30012201462068FFF74A
:102D7000D9FF2368334A934203D002F5806293421D
:102D800003D15A6C42F400425A6423682D4A93429C
:102D900049D0B3F1804F46D0A2F57C42934242D055
:102DA00002F5806293423ED002F5806293423AD0AF
:102DB00002F57842934236D002F57052934232D0F7
:102DC000A2F5943293422ED01A6842F001021A60A2
:102DD000002032E0042908D008290DD094F84130B1
:102DE000DBB2013B18BF0123B7E794F83F30DBB2F9
:102DF000013B18BF0123B0E794F84030DBB2013B40
:102E000018BF0123A9E7042805D0082807D002230A
:102E100084F84130A8E7022384F83F30A4E7022376
:102E200084F84030A0E79A6802F00702062A07D02B
:102E30001A6842F001021A60002010BD0120FCE770
:102E40000020FAE70000014010B504460B4609BB1C
:102E500090F83E00C0B26BBB94F84220D2B2012879
:102E600040F0A480012A40F0A2809BBB022184F89C
:102E70003E10002B3ED1022184F842100C2B00F2B0
:102E80009780DFE803F047959595769595957C9525
:102E900095958200042905D0082907D090F84100B3
:102EA000C0B2D8E790F83F00C0B2D4E790F8400035
:102EB000C0B2D0E7042B05D0082B07D094F84520EA
:102EC000D2B2CCE794F84320D2B2C8E794F84420B9
:102ED000D2B2C4E7042B05D0082B07D0022184F816
:102EE0004110C6E7022184F83F10C2E7022184F8AE
:102EF0004010BEE7042B05D0082B07D0022184F830
:102F00004510BBE7022184F84310B7E7022184F89B
:102F10004410B3E72168CA6842F00202CA60012285
:102F200019462068FFF7FEFE2368234A934232D0F9
:102F3000B3F1804F2FD0A2F57C4293422BD002F503
:102F40008062934227D002F58062934223D002F53B
:102F5000784293421FD002F5705293421BD0A2F5E3
:102F60009432934217D01A6842F001021A6000208E
:102F70001DE02168CA6842F00402CA60CFE72168F8
:102F8000CA6842F00802CA60C9E72168CA6842F00C
:102F90001002CA60C3E79A6802F00702062A09D045
:102FA0001A6842F001021A60002000E0012010BD02
:102FB0001046FCE70020FAE70000014090F83C20B2
:102FC000012A3DD010B40346012280F83C200222A1
:102FD00080F83D2002685068946820F0700C086802
:102FE00040EA0C0050601A68164882421AD0B2F1CA
:102FF000804F17D0A0F57C40824213D000F580604E
:1030000082420FD000F5806082420BD000F57840FC
:10301000824207D000F57050824203D0A0F5943070
:10302000824204D124F08004496821439160012246
:1030300083F83D20002083F83C005DF8044B704786
:10304000022070470000014070477047026802F19B
:103050000C0353E8003F23F0C0030C3242E8003178
:103060000029F3D1202380F841307047026802F133
:103070000C0353E8003F23F490730C3242E8003114
:103080000029F3D1026802F1140353E8003F23F052
:103090000103143242E800310029F3D1036B012B04
:1030A00005D0202380F84230002303637047026874
:1030B00002F10C0353E8003F23F010030C3242E806
:1030C00000310029F3D1ECE790F84130DBB2212B3D
:1030D00001D0022070478368B3F5805F17D0036A80
:1030E0005A1C02621A7803685A60C38C9BB2013B77
:1030F0009BB2C3844BB90268D36823F08003D360CA
:103100000268D36843F04003D3600020704703692E
:10311000002BE4D1036A1B880268C3F308035360E1
:10312000036A02330362E0E710B5044602681369DC
:1031300023F44053C1680B431361836802691A4347
:1031400043691A43C3691A430168CB6823F41643E1
:1031500023F00C031343CB600268536923F44073DC
:1031600081690B4353610368314A934206D002F5EB
:103170008062934202D0FEF793FC01E0FEF7A0FCD0
:10318000E369B3F5004F29D00021031849411B180A
:1031900041F10001C90041EA5371DB00181863686E
:1031A0004FEA83024FEA937341F10001FDF7C0F843
:1031B000204AA2FB00314909642303FB11031B01D0
:1031C0003233A2FB03235B0903F0F00202EB01128E
:1031D00003F00F03216813448B6010BD0023021815
:1031E00043EB0301121841F10001C90041EA527199
:1031F000D200101841F10001626892185B41FDF79E
:1032000097F80C4AA2FB00314909642303FB110320
:10321000DB003233A2FB03235B095A0002F4F8728D
:1032200002EB011203F00703216813448B60D4E71B
:10323000001001401F85EB512DE9F04383B0054696
:103240000E4617469946DDF828802B681C6836EA3A
:1032500004040CBF01240024BC4228D1B8F1FF3F74
:10326000F3D0FFF787F8A0EB0900404523D8B8F169
:10327000000F22D02B68DA6812F0040FE5D0802E00
:10328000E3D0402EE1D01A6812F0080FDDD0002400
:1032900001941A6801925B680193019B2846FFF72D
:1032A000E5FE08236B6485F84040012000E0002023
:1032B00003B0BDE8F0830320FAE70320F8E760B32A
:1032C00010B5044690F8413013B3242384F84130FC
:1032D0002268D36823F40053D3602046FFF724FF0D
:1032E0002268136923F4904313612268536923F021
:1032F0002A0353612268D36843F40053D36000204B
:103300006064202384F8413084F84230606310BD4B
:1033100080F84030FDF732FDD7E7012070472DE9F6
:10332000F04182B01E4690F84130DBB2202B56D1DE
:1033300004460D469046002955D00AB901204FE0B9
:1033400000234364212380F84130FFF713F8074638
:10335000A4F82480A4F82680A368B3F5805F02D087
:103360004FF0000814E023692BB34FF000080FE082
:10337000202384F84130032032E038F8023B2268F1
:10338000C3F308035360E28C92B2013A92B2E28432
:10339000E38C9BB293B100963B46002280212046ED
:1033A000FFF74AFF0028E3D1002DE6D015F8012BE6
:1033B00023685A60E7E7A8460025E9E700963B4600
:1033C000002240212046FFF737FF18B9202384F858
:1033D000413005E0202384F84130032000E0022042
:1033E00002B0BDE8F0810120FAE7000038B51346CD
:1033F00090F84120D2B2202A2FD1044600292ED0A5
:103400000BB9012038BD01628384C3840022426469
:10341000212084F84100A06B124DC563A06B124DB2
:103420000564A06B114DC564A06B0265226804326F
:10343000A06BFEF763FD23686FF040021A602268FC
:1034400002F1140353E8003F43F08003143242E8D2
:1034500000310029F3D10020D4E70220D2E7012077
:10346000D0E700BFF73400085F3500086F3500086B
:1034700010B5044603685A6990F84130DBB2212B3D
:103480000AD023685A6902F0400294F84230DBB255
:10349000222B19D0002010BD02F08002002AF0D0AB
:1034A000226802F1140353E8003F23F08003143232
:1034B00042E800310029F3D1A06B08B1FEF753FDBB
:1034C0002046FFF7C3FDDCE7002AE3D0226802F1C3
:1034D000140353E8003F23F04003143242E8003164
:1034E0000029F3D1E06B08B1FEF73DFD2046FFF760
:1034F000BDFDCFE7704708B50346806B1B681B68AE
:1035000013F4807F1AD10023C384026802F11403EC
:1035100053E8003F23F08003143242E800310029D1
:10352000F3D1026802F10C0353E8003F43F040037B
:103530000C3242E800310029F3D108BDFFF7DAFF71
:10354000FBE708B50168CA6822F04002CA60202281
:1035500080F84120FFF7CEFF002008BD704708B576
:10356000806BFFF7FBFF08BD70477047704710B5D1
:10357000846B23685A6994F84130DBB2212B10D058
:1035800023685A6902F0400294F84230DBB2222BE1
:1035900011D0636C43F0100363642046FFF7E6FF2D
:1035A00010BD02F08002002AEAD00023E384204606
:1035B000FFF74CFDE4E7002AEBD00023E38520462B
:1035C000FFF754FDE5E708B5806B0023C385C3848E
:1035D000FFF7CCFF08BD704790F84230DBB2222BDA
:1035E00069D18368B3F5805F4FD0826AB3F5805F9D
:1035F00004D0002B56D10369002B53D103685B68BC
:103600001370836A01338362C38D9BB2013B9BB20B
:10361000C385002B51D100B583B00268D36823F075
:103620002003D3600268D36823F48073D3600268F8
:10363000536923F001035361202380F842300023B3
:103640004363036B012B33D100230363026802F150
:103650000C0353E8003F23F010030C3242E8003122
:103660000029F3D103681A6812F0100F06D0002267
:1036700001921A6801925B680193019B818DFFF7AB
:10368000AAFF002003B05DF804FB0269002AACD158
:10369000826A03685B68C3F308031380836A02339A
:1036A0008362B1E703685B6803F07F031370A8E7E8
:1036B000FFF75AFFE5E7022070470020704700003F
:1036C00030B583B0044602681368D068516913F0BE
:1036D0000F0505D113F0200F02D010F0200F19D1E3
:1036E0002DB111F0010119D110F4907F16D1216B89
:1036F00001297DD013F0800F03D010F0800F40F02F
:10370000198113F0400F03D010F0400F40F01681E4
:1037100003B030BD2046FFF75FFFF9E713F0010F5C
:1037200006D010F4807F03D0626C42F00102626424
:1037300013F0040F04D019B1626C42F0020262640B
:1037400013F0020F04D019B1626C42F004026264FB
:1037500013F0080F07D010F0200F00D119B1626CE0
:1037600042F008026264626C002AD1D013F0200F8C
:1037700002D010F0200F29D123685B6903F04003C9
:10378000626C12F0080F00D163B32046FFF76EFCA5
:1037900023685B6913F0400F20D0226802F1140304
:1037A00053E8003F23F04003143242E8003100297F
:1037B000F3D1E36B73B1634A1A65E06BFEF71DFC4E
:1037C0000028A5D0E06B036D9847A1E72046FFF7DE
:1037D00003FFD1E72046FFF7C9FE99E72046FFF730
:1037E000C5FE95E72046FFF7C1FE002363648FE71F
:1037F00013F0100F3FF47EAF10F0100F3FF47AAFCC
:10380000002301931368019353680193019B53694B
:1038100013F0400F52D0E26B13685B689BB2002B31
:103820003FF476AFA18D99427FF672AFE385D369FD
:10383000B3F5807F37D0226802F10C0353E8003FD4
:1038400023F480730C3242E800310029F3D122685E
:1038500002F1140353E8003F23F00103143242E85D
:1038600000310029F3D1226802F1140353E8003F2C
:1038700023F04003143242E800310029F3D1202321
:1038800084F8423000232363226802F10C0353E8DA
:10389000003F23F010030C3242E800310029F3D13D
:1038A000E06BFEF760FB02236363A18DE38D9BB2A7
:1038B000C91A89B22046FFF78EFE29E7A18DE38D54
:1038C0009BB2C91A89B2E38D9BB2002B3FF420AFA3
:1038D00000293FF41DAF226802F10C0353E8003FBA
:1038E00023F490730C3242E800300028F3D12268B0
:1038F00002F1140353E8003F23F00103143242E8BD
:1039000000300028F3D1202384F8423000232363C1
:10391000226802F10C0353E8003F23F010030C323D
:1039200042E800300028F3D1022363632046FFF70A
:1039300052FEEDE62046FFF7C7FBE9E62046FFF71B
:1039400000FEE5E6C735000808B5806B0123436338
:10395000036B012B02D0FFF708FE08BD818D4908DB
:10396000FFF739FEF9E708B50346806B1B681B6853
:1039700013F4807F2BD10023C385026802F10C036E
:1039800053E8003F23F480730C3242E800310029F1
:10399000F3D1026802F1140353E8003F23F001035E
:1039A000143242E800310029F3D1026802F1140315
:1039B00053E8003F23F04003143242E8003100296D
:1039C000F3D1202380F84230036B012B07D0002372
:1039D0004363036B012B0FD0FFF7C6FD08BD0268E0
:1039E00002F10C0353E8003F23F010030C3242E8CD
:1039F00000310029F3D1EAE7818DFFF7ECFDEDE717
:103A000030B583B004461346816282850025456443
:103A1000222280F84220C26B1F48D063E26B1F480D
:103A20001064E26B1E48D064E26B156520680A469C
:103A3000011DE06BFEF762FA019523681A68019296
:103A40005B680193019B23695BB1226802F10C035F
:103A500053E8003F43F480730C3242E80031002900
:103A6000F3D1226802F1140353E8003F43F001034D
:103A7000143242E800310029F3D1226802F1140324
:103A800053E8003F43F04003143242E8003100297C
:103A9000F3D1002003B030BD673900084939000870
:103AA0006F35000808B590F84230DBB2202B08D102
:103AB00049B10AB9012008BD00230363FFF7A0FF45
:103AC000F9E70220F7E70120F5E70000034AD2F802
:103AD000883043F47003C2F88830704700ED00E08E
:103AE00000F1080343604FF0FF328260C36003615E
:103AF00000230360704700230361704743684B60F5
:103B00009A688A60516099600861036801330360B4
:103B1000704730B40D68B5F1FF3F11D000F10803D4
:103B20001C465B681A68AA42FAD963684B609960C0
:103B30008C606160086103680133036030BC7047CA
:103B40000469F2E70369416882688A6041685160EC
:103B50005A68824206D0002202611A68013A1A604D
:103B60001868704782685A60F5E710B5044601F09E
:103B7000D1FCA26BE36B9A4204D0002401F0ECFC70
:103B8000204610BD0124F9E710B5044601F0C2FC3F
:103B9000A36B23B9012401F0DFFC204610BD0024F3
:103BA000F9E770B504461546866B026C5AB903688E
:103BB0001BB100200136A66370BD806800F0EEFFE7
:103BC0000023A360F6E76DB9406802F028FA226C82
:103BD000636813446360A268934219D323686360E7
:103BE0002846E7E7C06802F01AFA226C5142E368FF
:103BF0009B1AE3602268934202D2A3680B44E360FD
:103C0000022D01D00020D5E726B1013E0020D1E7EA
:103C10002846CFE70020CDE70346026C6AB110B515
:103C20000846D9681144D9609C68A14201D319683B
:103C3000D960D96802F0F3F910BD704738B5054670
:103C400001F068FC95F8454064B201E0013C64B2C3
:103C5000002C0ADD6B6A43B105F1240000F0D8FEA8
:103C60000028F3D000F084FFF0E7FF2385F845300B
:103C700001F072FC01F04EFC95F8444064B201E0A2
:103C8000013C64B2002C0ADD2B6943B105F1100040
:103C900000F0BEFE0028F3D000F06AFFF0E7FF233B
:103CA00085F8443001F058FC38BD38B5E0B10D4618
:103CB000044601F02FFC2368E26B216C01FB02300B
:103CC000A0600020A0636360013A02FB0133E3605F
:103CD000FF2384F8443084F84530FDB9236963B983
:103CE00001F03AFC012038BD4FF0500383F31188F6
:103CF000BFF36F8FBFF34F8FFEE704F1100000F0AA
:103D000087FE0028ECD04FF0E0234FF08052C3F83C
:103D1000042DBFF34F8FBFF36F8FE1E704F1100065
:103D2000FFF7DEFE04F12400FFF7DAFED8E738B52E
:103D30001D46049C0B4649B92460E06323640121BD
:103D40002046FFF7B2FF84F84C5038BD2260F4E7FC
:103D500040B94FF0500383F31188BFF36F8FBFF367
:103D60004F8FFEE710B584B01C46844653B192B124
:103D700089B94FF0500383F31188BFF36F8FBFF3FE
:103D80004F8FFEE74FF0500383F31188BFF36F8F1F
:103D9000BFF34F8FFEE76AB150230393039B502B71
:103DA00013D04FF0500383F31188BFF36F8FBFF32D
:103DB0004F8FFEE70029EFD04FF0500383F31188B7
:103DC000BFF36F8FBFF34F8FFEE7039B012384F890
:103DD000463000949DF818306046FFF7A8FF204653
:103DE00004B010BDF0B585B0019288B10F461D46F4
:103DF0000446B1B1022D20D1E36B012B1DD04FF051
:103E0000500383F31188BFF36F8FBFF34F8FFEE72B
:103E10004FF0500383F31188BFF36F8FBFF34F8FC1
:103E2000FEE7036C002BE5D04FF0500383F31188BD
:103E3000BFF36F8FBFF34F8FFEE700F09FFE064684
:103E400058B9019B002B48D04FF0500383F31188E1
:103E5000BFF36F8FBFF34F8FFEE700263DE02A468A
:103E600039462046FFF79DFE636A7BB948B14FF0A3
:103E7000E0234FF08052C3F8042DBFF34F8FBFF300
:103E80006F8F01F069FB012005B0F0BD04F1240043
:103E900000F0BEFD0028F4D04FF0E0234FF0805238
:103EA000C3F8042DBFF34F8FBFF36F8FE9E701F025
:103EB00053FB0020E8E702A800F00CFE012619E001
:103EC000002384F8443021E0002384F8453023E0C7
:103ED0002046FFF7B3FE00F07BFC01F01BFBA26B5A
:103EE000E36B9A42BBD3022DB9D0019B002BDED0ED
:103EF000002EE0D001F030FB00F0D0FB01F00AFB17
:103F000094F8442052B2B2F1FF3FD9D094F8452042
:103F100052B2B2F1FF3FD7D001F01EFB01A902A8B7
:103F200000F0E4FDD8B92046FFF71FFE0028CFD0EF
:103F3000019904F1100000F037FD2046FFF77EFEE6
:103F400000F046FC0028C8D14FF0E0234FF080522B
:103F5000C3F8042DBFF34F8FBFF36F8FBDE720462B
:103F6000FFF76CFE00F034FC00208DE72DE9F843EC
:103F700090B10F4616461C460546B1B1022C20D121
:103F8000EB6B012B1DD04FF0500383F31188BFF36F
:103F90006F8FBFF34F8FFEE74FF0500383F311880D
:103FA000BFF36F8FBFF34F8FFEE7036C002BE5D09D
:103FB0004FF0500383F31188BFF36F8FBFF34F8F20
:103FC000FEE701F0CDFBEFF311884FF0500383F3D0
:103FD0001188BFF36F8FBFF34F8FAA6BEB6B9A42C1
:103FE00006D3022C04D0002088F31188BDE8F883A2
:103FF00095F845904FFA89F9AB6B22463946284629
:10400000FFF7CFFDB9F1FF3F06D009F101035BB225
:1040100085F845300120E7E76B6A0BB90120E3E73B
:1040200005F1240000F0F4FC18B126B10120306045
:10403000DAE70120D8E70120D6E7F0B585B0019294
:1040400090B10F460446C1B100F098FD064600BB92
:10405000019B002B5ED04FF0500383F31188BFF318
:104060006F8FBFF34F8FFEE74FF0500383F311883C
:10407000BFF36F8FBFF34F8FFEE7036C002BE3D0CE
:104080004FF0500383F31188BFF36F8FBFF34F8F4F
:10409000FEE700263EE039462046FFF7BDFD013D24
:1040A000A563236923B901F057FA012005B0F0BDDB
:1040B00004F1100000F0ACFC0028F4D04FF0E02335
:1040C0004FF08052C3F8042DBFF34F8FBFF36F8FB3
:1040D000E9E701F041FA0020E8E702A800F0FAFC65
:1040E000012621E0002384F8443029E0002384F8ED
:1040F00045302BE02046FFF7A1FD00F069FB09E009
:104100002046FFF79BFD00F063FB2046FFF73CFDD8
:1041100000283FD101F0FEF9A56B002DBBD1019B1A
:10412000002BD6D0002ED8D001F016FA00F0B6FA47
:1041300001F0F0F994F844305BB2B3F1FF3FD1D015
:1041400094F845305BB2B3F1FF3FCFD001F004FAF1
:1041500001A902A800F0CAFC0028D1D12046FFF72F
:1041600013FD0028C6D0019904F1240000F01CFCC6
:104170002046FFF763FD00F02BFB0028CAD14FF06B
:10418000E0234FF08052C3F8042DBFF34F8FBFF3ED
:104190006F8FBFE7002089E70023072B0CD8074A61
:1041A00052F833200AB10133F7E7044A42F83310DA
:1041B00002EBC30250607047704700BFE03200203E
:1041C00070B504460D46164601F0A4F994F8443043
:1041D0005BB2B3F1FF3F0DD094F845305BB2B3F161
:1041E000FF3F0BD001F0B8F9A36B5BB12046FFF79E
:1041F00025FD70BD002384F84430EDE7002384F8EA
:104200004530EFE73246294604F1240000F0E4FB94
:10421000ECE70000084B1B681B6823B9074B4FF005
:10422000FF321A607047044B1B68DB68DB685A6812
:10423000024B1A60704700BF24330020CC370020A7
:104240002DE9F04780460D4617469946089EDDF851
:1042500024A00A9C9200A521206B01F064FE236B30
:1042600007F18042013A03EB820727F00707A5B365
:104270004FF0000CBCF10F0F09D815F80C3004EB0F
:104280000C0282F8343013B10CF1010CF2E7002378
:1042900084F84330372E00D93726E662E6640025DD
:1042A0002565201DFFF727FC04F11800FFF723FC0C
:1042B0002461C6F13806A6616462656584F85850C9
:1042C0004A464146384601F0F7F82060BAF1000F3F
:1042D00001D0CAF80040BDE8F087002384F83430EC
:1042E000D8E7000038B5002407E004EB840293000F
:1042F0000E481844FFF7F4FB0134372CF5D90C4D68
:104300002846FFF7EDFB0B4C2046FFF7E9FB0A4878
:10431000FFF7E6FB0948FFF7E3FB0948FFF7E0FB7F
:10432000084B1D60084B1C6038BD00BF2C330020BB
:10433000A0370020B4370020D837002004380020F0
:10434000F0370020243300202833002010B5044625
:1043500001F0E0F8224A136801331360214B1B6817
:104360005BB1214B1B686BB91E4B1B68DA6AE36AB1
:104370009A4207D81B4B1C6004E01A4B1C60136860
:10438000012B29D0194A1368013313606364E06A72
:10439000174B1B68984201D9154B186000EB800041
:1043A000211D144B03EB8000FFF7A8FB01F0D4F8AC
:1043B0000D4B1B687BB10B4B1B68DA6AE36A9A42B0
:1043C00009D24FF0E0234FF08052C3F8042DBFF321
:1043D0004F8FBFF36F8F10BDFFF784FFD2E700BF91
:1043E0008C37002020330020EC3700209837002045
:1043F0009C3700202C33002010B5044690F859302B
:1044000063B1012B11D0022B0ED04FF0500383F378
:104410001188BFF36F8FBFF34F8FFEE7006B00F083
:10442000CFFF204600F0CCFF10BD00F0C9FFFBE736
:104430000F4B1B68D3B110B501F06CF80D4BDB6866
:10444000DC68201DFFF77EFB0B4A1368013B1360FD
:10445000074A1368013B136001F07EF82046FFF71E
:10446000CBFF034B1B68002BE6D110BD704700BF8C
:1044700090370020043800208C37002008B5FFF763
:10448000D7FF074B1B68012BF9D94FF0E0234FF002
:104490008052C3F8042DBFF34F8FBFF36F8FEEE749
:1044A0002C33002070B504460D46174B1E68174B81
:1044B00018680430FFF746FBB4F1FF3F0DD03444D9
:1044C000124B1B685C60A64210D9114B18680F4B49
:1044D00019680431FFF71DFB70BD002DEFD00B4BA9
:1044E000196804310B48FFF709FBF5E70A4B186818
:1044F000064B19680431FFF70CFB084B1B68A342FD
:10450000EAD9064B1C60E7E718380020203300206A
:1045100028330020F037002024330020CC3700203F
:1045200030B587B00B9C7CB10C9DB5B15C25049572
:10453000049D5C2D1AD04FF0500383F31188BFF314
:104540006F8FBFF34F8FFEE74FF0500383F3118857
:10455000BFF36F8FBFF34F8FFEE74FF0500383F32E
:104560001188BFF36F8FBFF34F8FFEE7049D0C9D43
:104570002C63022485F8594000240394029505AC6D
:1045800001940A9C0094FFF75BFE0C98FFF7DEFE97
:10459000059807B030BD2DE9F04385B00746884641
:1045A00014461E46900000F08DFE00B381465C204C
:1045B00000F088FE0546B0B1C0F83090E5B10023A8
:1045C00085F85930039302950D9B01930C9B009342
:1045D0003346224641463846FFF732FE2846FFF76B
:1045E000B5FE012005E0484600F0EAFEE6E74FF0A0
:1045F000FF3005B0BDE8F0834FF0FF30F9E7000071
:1046000010B588B000240594069407AA06A905A849
:1046100000F0DCFD059B0293069B0193009423466A
:10462000079A18491848FFF77BFF184B186040B1EC
:1046300000F068FB012806D0B0F1FF3F18D008B0A9
:1046400010BD0020F6E74FF0500383F31188BFF34D
:104650006F8FBFF34F8F0E4B4FF0FF321A600D4B31
:1046600001221A600C4B00221A6000F0EDFFE6E711
:104670004FF0500383F31188BFF36F8FBFF34F8F59
:10468000FEE700BF3C0B01087D440008C83700204E
:10469000CC370020EC37002018380020024A13687D
:1046A00001331360704700BF94370020014B186836
:1046B000704700BF18380020F8B53A4B1B68002B34
:1046C00069D1394B1D6801351D60C5B9374B1B6871
:1046D0001B6843B14FF0500383F31188BFF36F8F12
:1046E000BFF34F8FFEE7314A1168314B18681060F5
:1046F0001960304A136801331360FFF78BFD2E4BAE
:104700001B68AB423DD900272C4B1B68DB6A03EBCF
:1047100083039A002A4B9B58012B00D90127294B70
:104720001B68002B3CD001273AE001271F4B1B6878
:104730001B6843B31D4B1B68DB68DC6863689D42E4
:1047400026D3261D3046FFF7FDF9A36A1BB104F1FD
:104750001800FFF7F7F9E36A1B4A1268934201D980
:10476000194A136003EB83039A003146144810443E
:10477000FFF7C4F9E26A114B1B68DB6A9A42D4D294
:10478000D4E70027D2E70C4B4FF0FF321A60BBE7AB
:10479000094A1360B8E70D4A136801331360002714
:1047A0003846F8BD94370020183800202433002004
:1047B00028330020D0370020CC37002020330020C1
:1047C0002C3300201C3800209C370020D4370020D8
:1047D00038B5354B1B6843B94FF0500383F311884C
:1047E000BFF36F8FBFF34F8FFEE700F093FE2E4BAA
:1047F0001A68013A1A601B68002B4FD12B4B1B68BB
:104800000BB900244BE00024294B1B681BB3284B39
:10481000DB68DC6804F11800FFF794F9251D2846D1
:10482000FFF790F9E06A234B1B68984201D9214BAE
:10483000186000EB800029461F4B03EB8000FFF758
:104840005DF9E26A1D4B1B68DB6A9A42DCD31C4BA4
:1048500001221A60D8E70CB1FFF7DCFC194B1C6889
:1048600084B9174B1C68D4B14FF0E0234FF080524D
:10487000C3F8042DBFF34F8FBFF36F8F01240EE0F9
:10488000013C07D0FFF718FF0028F9D00C4B01229C
:104890001A60F5E70B4B00221A60E2E7002400F0F3
:1048A0005BFE204638BD00BF943700208C370020C7
:1048B000D83700209C3700202C33002020330020E4
:1048C0001C380020D437002010B5A8B10446104B86
:1048D0001B6843B14FF0500383F31188BFF36F8F10
:1048E000BFF34F8FFEE7FFF7D9FE00212046FFF709
:1048F000D9FDFFF76DFF48B94FF0E0234FF080522C
:10490000C3F8042DBFF34F8FBFF36F8F10BD00BFEF
:10491000943700201F4B1B681BB11F4B01221A60EC
:1049200070471D4B00221A601C4B1B6803EB830170
:104930008A001B498A585AB90BB1013BF6E74FF080
:10494000500383F31188BFF36F8FBFF34F8FFEE7E0
:1049500003EB830082000A4450684068506003EB18
:10496000830C4FEA8C020832114488420BD003EBCF
:10497000830291000A4A0A445268D168094A1160C8
:10498000064A13607047406862469100044A0A4430
:104990005060ECE7943700201C3800209C37002042
:1049A0002C3300202033002058B110B50C46094AA2
:1049B00011681831FFF7ADF801212046FFF772FDAD
:1049C00010BD4FF0500383F31188BFF36F8FBFF317
:1049D0004F8FFEE72033002038B570B10D461446E6
:1049E0000A4A11681831FFF789F80CB14FF0FF350A
:1049F00021462846FFF756FD38BD4FF0500383F39C
:104A00001188BFF36F8FBFF34F8FFEE72033002075
:104A100038B5C368DC6824B304F118052846FFF7ED
:104A200091F8184B1B682BBB251D2846FFF78AF809
:104A3000E06A154B1B68984201D9134B186000EBD4
:104A400080002946114B03EB8000FFF757F8E26A1C
:104A50000F4B1B68DB6A9A4211D901200D4B18607D
:104A600038BD4FF0500383F31188BFF36F8FBFF34E
:104A70004F8FFEE729460848FFF740F8E7E7002098
:104A8000EEE700BF943700209C3700202C33002035
:104A9000203300201C380020D837002060B110B52A
:104AA000044600F037FD094B1B682360084B1B6868
:104AB000636000F051FD10BD4FF0500383F3118887
:104AC000BFF36F8FBFF34F8FFEE700BFD0370020DB
:104AD00018380020034B1B680360034B1B684360BE
:104AE000704700BFD037002018380020F8B5C8B193
:104AF0000C460546F9B100F00DFD1B4B19686B68BB
:104B0000C81A2268B2F1FF3F26D0184E36682F68C7
:104B1000B74201D08B4224D9824215D800232360AA
:104B200001241AE04FF0500383F31188BFF36F8F15
:104B3000BFF34F8FFEE74FF0500383F31188BFF3AD
:104B40006F8FBFF34F8FFEE75B1A13442360284635
:104B5000FFF7C0FF002400E0002400F0FDFC204629
:104B6000F8BD0124F9E700BF18380020D037002035
:104B7000014B01221A6070471C380020054B1B684E
:104B800033B1054B1B680BB1002070470220704702
:104B900001207047EC3700209437002000283BD0DC
:104BA00038B504461E4B1B68834208D04FF05003B3
:104BB00083F31188BFF36F8FBFF34F8FFEE7036D51
:104BC00043B94FF0500383F31188BFF36F8FBFF3E6
:104BD0004F8FFEE7013B0365C16AC26C91421DD055
:104BE0000BB1002038BD051D2846FEF7ABFFE06C79
:104BF000E062C0F13803A3610A4B1B68984201D9F7
:104C0000084B186000EB80002946074B03EB80003F
:104C1000FEF774FF0120E5E7002070470020E1E780
:104C2000203300209C3700202C330020064B1A68CC
:104C300013682BB90123036023B9D3681868704740
:104C40000023F8E7002070472038002008B54160B5
:104C5000006191420CD8D21A83699A4201D3012093
:104C600008BD011D094B1868FEF753FF0020F7E748
:104C70009A4201D2994206D2011D054B1868FEF7EF
:104C800048FF0020ECE70120EAE700BF24380020BD
:104C90002038002030B583B000F03CFC114B1B687D
:104CA0001BB100F059FC03B030BD0F4D2846FEF794
:104CB00017FF0E4C2046FEF713FF0D4B1D600D4BEA
:104CC0001C60002300930C4B0C4A10210A20FFF7B4
:104CD0003FF8044B18600028E3D00949FFF75CFA5D
:104CE000DFE700BF44390020C8380020DC3800204E
:104CF0002038002024380020F438002028380020F4
:104D0000440B010810B588B0FFF7C4FF124B1B68B5
:104D1000CBB100240594069407AA06A905A800F0C3
:104D200061FA059B0293069B01930223009323469D
:104D3000079A0A490A48FFF7F3FB0A4B186010B1BB
:104D4000012008B010BD4FF0500383F31188BFF36A
:104D50006F8FBFF34F8FFEE7443900204C0B0108E3
:104D60006950000848390020B8B19C4603461848ED
:104D7000006858B300B585B00091019202930529EF
:104D80001CDCFFF7FBFE022810D000231A46694600
:104D90000F480068FFF726F815E04FF0500383F343
:104DA0001188BFF36F8FBFF34F8FFEE70023069A82
:104DB000694607480068FFF715F804E000236246DB
:104DC0006946FFF7D3F805B05DF804FB0020704793
:104DD0004439002070B582B01B4B1B681A6862B35F
:104DE000DB681E68DC68251D2846FEF7ABFE236ADB
:104DF0002046984794F8283013F0040FECD0A369AC
:104E000033449E4207D26360246129460E4B1868E2
:104E1000FEF77FFEE0E7002100910B463246204678
:104E2000FFF7A2FF0028D7D14FF0500383F311887A
:104E3000BFF36F8FBFF34F8FFEE7044A106802493C
:104E40000860136002B070BD2038002024380020B4
:104E500038B50546FFF72AFC0446074B1B6883421A
:104E600005D800232B60044B1C60204638BDFFF79B
:104E7000B1FF01232B60F6E7F038002070B582B057
:104E800006460D4617490968C968CC68201DFEF71B
:104E900059FE94F828C01CF0040F08D12CF0010C26
:104EA00084F828C0236A2046984702B070BDA169E3
:104EB00033462A4631442046FFF7C8FE0028F1D089
:104EC000002100910B4632462046FFF74DFF002897
:104ED000E8D14FF0500383F31188BFF36F8FBFF316
:104EE0004F8FFEE72038002070B582B006460C4692
:104EF000FFF7D4FB01A8FFF7ABFF019B33BB0546CF
:104F00000CB9B04219D224B1124A12681268DAB947
:104F100001242246711B104B1868FFF751F9FFF767
:104F200057FCA8B94FF0E0234FF08052C3F8042D8E
:104F3000BFF34F8FBFF36F8F0AE0FFF749FC29469D
:104F40003046FFF79BFF03E01C46E2E7FFF740FC1B
:104F500002B070BD243800204439002010B588B05C
:104F600002E0049B002B0FDA002204A93D4B1868D5
:104F7000FFF763F8002873D0049B002BF1DA079940
:104F80000698059B9847ECE7069C636913B1201DC2
:104F9000FEF7D8FD03A8FFF75BFF049B092BE3D8BE
:104FA000DFE803F00505053037500505303794F884
:104FB000283043F0010384F82830059BA16902469C
:104FC00019442046FFF742FE0028CDD0236A204630
:104FD000984794F8283013F0040FC5D0A269002137
:104FE00000910B46059802442046FFF7BDFE0028BD
:104FF000BAD14FF0500383F31188BFF36F8FBFF323
:105000004F8FFEE794F8283023F0010384F828300E
:10501000AAE794F8283043F0010384F82830059972
:10502000A16131B10346024601442046FFF70EFE5E
:105030009AE74FF0500383F31188BFF36F8FBFF3EC
:105040004F8FFEE794F8283013F0020F04D023F0BE
:10505000010384F8283087E7204600F0B1F983E7A0
:1050600008B010BD4439002000B583B001A8FFF797
:10507000DDFD0199FFF738FFFFF770FFF6E708B590
:105080004FF0E0231B69FFF779FD012800D108BD2F
:1050900000F0B0FAFBE70000EFF305832BB9064BF5
:1050A000186828B901221A6070476FF00500704730
:1050B0004FF0FF30704700BFA83B0020EFF305839F
:1050C00073B90A4B1B68012B0DD110B50024084B96
:1050D000DC77064B02221A60FFF792FA204610BDD9
:1050E0006FF0050070474FF0FF307047A83B00207D
:1050F00000ED00E0F0B587B000240594EFF30584DF
:1051000074BB68B322B31568936903B918235C1E96
:10511000372C49D8546814F0010F47D156696EB145
:105120004FEA960C94682CB1D7685B2F02D91769A7
:1051300007B1C6B92CB14FF0FF340EE04FF0800C30
:10514000F0E7D4688CB9146994B14FF0FF3404E0EF
:105150001546002418234FF0800C012C0AD0ACB166
:10516000059807B0F0BD0124F7E74FF0FF34F4E7EE
:105170000024F2E7146992680292019400930B46AE
:1051800062462946FFF7CCF90590E9E705AA0192A6
:1051900000930B461FFA8CF22946FFF7FCF9012811
:1051A000DED000230593DBE70020DAE70020D8E714
:1051B00008B5EFF3058333B908B9002008BDFFF740
:1051C00083FB0020FAE76FF00500F7E7034B03606D
:1051D000034B0B6080231360704700BF4C3B0020E3
:1051E0004C390020034B0360034B0B604FF480737A
:1051F00013607047AC3F0020AC3B0020124A12F015
:10520000070F1ED0D11D21F00701C1F570531344C3
:105210000A460E480260002141601344083B23F017
:1052200007030B48036059601960991A51601360B5
:10523000084B1960084B1960084B4FF000421A6088
:1052400070474FF47053E4E70C400020207C0020AE
:1052500008400020147C0020107C00200C7C0020E2
:10526000164B1A461B688342FBD3516802EB010CB4
:10527000844509D0416800EB010C634509D0036007
:10528000904219D010607047406801445160104648
:10529000F0E710B40A4C2468A3420BD05B681944B1
:1052A000416013681B680360904200D010605DF895
:1052B000044B70470460F7E7704700BF207C002074
:1052C0000840002070B50546FFF7E8F9364B1B682B
:1052D000A3B1364B1B681D424ED135B1083515F0D0
:1052E000070F02D025F007050835002D46D0304BBA
:1052F0001B68AB4251D32F4A146804E0FFF77EFFCE
:10530000E7E722461C466368AB4202D22368002BC3
:10531000F7D1254B1B68A34241D016680836236895
:10532000136063685B1B102B10D9601910F0070F16
:1053300008D04FF0500383F31188BFF36F8FBFF392
:105340004F8FFEE743606560FFF78AFF6268184988
:105350000B689B1A0B60184909688B4201D21649E9
:105360000B60124B1B681343636000232360134AD6
:1053700013680133136002E0002600E00026FFF707
:1053800027FA16F0070F0CD04FF0500383F3118863
:10539000BFF36F8FBFF34F8FFEE70026EFE70026C6
:1053A000EDE7304670BD00BF084000200C7C0020B7
:1053B000107C0020207C0020147C0020187C002021
:1053C000002834D038B50446A0F1080550F8043C54
:1053D000174A1268134208D14FF0500383F3118823
:1053E000BFF36F8FBFF34F8FFEE750F8081C41B13A
:1053F0004FF0500383F31188BFF36F8FBFF34F8FCC
:10540000FEE723EA020340F8043CFFF747F954F8AB
:10541000041C084A13680B4413602846FFF720FF5A
:10542000054A136801331360FFF7D2F938BD70479E
:105430000C7C0020107C00201C7C002082B000230B
:1054400001930D4B1B68B3F1FF3F08D04FF05003A1
:1054500083F31188BFF36F8FBFF34F8FFEE74FF0D9
:10546000500383F31188BFF36F8FBFF34F8F019BFE
:10547000002BFCD002B070474400002008480068B0
:10548000006880F308884FF0000080F3148862B64B
:1054900061B6BFF34F8FBFF36F8F00DF00BF000017
:1054A00008ED00E0DFF80C00016841F470010160D4
:1054B0007047000088ED00E04FF0807340F8043C36
:1054C00021F0010140F8081C054B40F80C3C40F865
:1054D000202C6FF0020340F8243C4438704700BF92
:1054E0003D54000800000000000000000000000023
:1054F000074B19680868B0E8F04F80F30988BFF3DC
:105500006F8F4FF0000080F311887047AFF3008079
:10551000203300204FF0500383F31188BFF36F8FC7
:10552000BFF34F8F0B4A136801331360012B00D078
:1055300070474FF0E023D3F8043D13F0FF0FF7D08E
:105540004FF0500383F31188BFF36F8FBFF34F8F7A
:10555000FEE700BF44000020094B1B6843B94FF031
:10556000500383F31188BFF36F8FBFF34F8FFEE7B4
:10557000013B034A13600BB983F31188704700BFE6
:1055800044000020000000000000000000000000B7
:10559000EFF30980BFF36F8F154B1A681EF0100FE1
:1055A00008BF20ED108A20E9F04F10602DE90900B6
:1055B0004FF0500080F31188BFF34F8FBFF36F8F10
:1055C000FFF7A8F94FF0000080F3118809BC1968B3
:1055D0000868B0E8F04F1EF0100F08BFB0EC108A5A
:1055E00080F30988BFF36F8F704700BFAFF300806F
:1055F0002033002008B54FF0500383F31188BFF328
:105600006F8FBFF34F8FFFF757F828B14FF0E023AC
:105610004FF08052C3F8042D002383F3118808BD96
:105620004FF0E022002313619361054B1B6805498D
:10563000A1FB03139B09013B5361072313617047CF
:1056400040000020D34D62104FF0E023D3F8002D2E
:105650003D4B9A421CD04FF0E023D3F8002D3B4B3A
:105660009A421ED030B583B0394B1A78D2B201922B
:10567000FF221A701B78DBB28DF803309DF80330DF
:1056800003F05003334A1370334B07221A601BE0B8
:105690004FF0500383F31188BFF36F8FBFF34F8F29
:1056A000FEE74FF0500383F31188BFF36F8FBFF312
:1056B0004F8FFEE7284A1368013B13609DF80330C3
:1056C0005B00DBB28DF803309DF8033013F0800FE0
:1056D000F0D1214B1B68032B08D04FF0500383F30C
:1056E0001188BFF36F8FBFF34F8FFEE71B021A4A7B
:1056F000136003F4E0631360019BDBB2144A137080
:105700004FF0E024D4F8203D43F47003C4F8203D6A
:10571000D4F8203D43F07043C4F8203DFFF780FFEC
:1057200000250E4B1D60FFF7BDFED4F8343F43F05B
:105730004043C4F8343FFFF7A1FEFFF7EBF8FFF753
:105740007DFE284603B030BD71C20F4170C20F41CB
:1057500000E400E0287C00202C7C00204400002095
:10576000EFF305830F2B0FD9114A9B5CDBB2114A73
:1057700012789A4208D94FF0500383F31188BFF38F
:105780006F8FBFF34F8FFEE74FF0E023D3F80C3D50
:1057900003F4E063084A1268934208D94FF05003BB
:1057A00083F31188BFF36F8FBFF34F8FFEE770470E
:1057B000F0E300E0287C00202C7C0020124A12F04C
:1057C000070F1ED0D11D21F00701C1F570531344FE
:1057D0000A460E480260002141601344083B23F052
:1057E00007030B48036059601960991A51601360F0
:1057F000084B1960084B1960084B4FF000421A60C3
:1058000070474FF47053E4E7347C002040B8002028
:10581000307C00203CB8002038B8002034B800208C
:10582000164B1A461B688342FBD3516802EB010CEE
:10583000844509D0416800EB010C634509D0036041
:10584000904219D010607047406801445160104682
:10585000F0E710B40A4C2468A3420BD05B681944EB
:10586000416013681B680360904200D010605DF8CF
:10587000044B70470460F7E7704700BF40B8002052
:10588000307C002070B50546FEF708FF344B1B68DE
:10589000A3B1344B1B681D424AD135B1083515F010
:1058A000070F02D025F007050835002D42D02E4BFA
:1058B0001B68AB424DD32D4A146804E0FFF77EFF0E
:1058C000E7E722461C466368AB4202D22368002BFE
:1058D000F7D1234B1B68A3423DD0166808362368D6
:1058E000136063685B1B102B10D9601910F0070F51
:1058F00008D04FF0500383F31188BFF36F8FBFF3CD
:105900004F8FFEE743606560FFF78AFF62681649C4
:105910000B689B1A0B60164909688B4201D2144927
:105920000B60104B1B68134363600023236002E08D
:10593000002600E00026FEF74BFF16F0070F0CD004
:105940004FF0500383F31188BFF36F8FBFF34F8F76
:10595000FEE70026EFE70026EDE7304670BD00BF0A
:10596000307C002034B8002038B8002040B8002037
:105970003CB8002080B338B50446A0F1080550F8C3
:10598000043C164A1268134208D14FF0500383F3C7
:105990001188BFF36F8FBFF34F8FFEE750F8081CDD
:1059A00041B14FF0500383F31188BFF36F8FBFF302
:1059B0004F8FFEE723EA020340F8043CFEF76EFE39
:1059C00054F8041C064A13680B4413602846FFF77A
:1059D00027FFFEF7FDFE38BD704700BF34B800203A
:1059E00038B8002050F8043C024A106823EA00004E
:1059F000704700BF34B8002070B505460C46FEF76E
:105A00004DFE2046FFF73EFF064678B175B12846A9
:105A1000FFF7E8FF0838844200D3044622462946AF
:105A2000304600F0FCFA2846FFF7A4FFFEF7D0FE50
:105A3000304670BD38B505460C46FEF72FFE05FB17
:105A400004F42046FFF71EFF0546034603E000214D
:105A500003F8011B1446621E002CF8D1FEF7B8FEB5
:105A6000284638BD08B505490A6802440A60044959
:105A70000A6802440A60FFF705FF08BD48B8002025
:105A80004CB8002058B110B50446FFF7ABFF044AEC
:105A900013681B1A13602046FFF76CFF10BD704798
:105AA0004CB8002038B50C460C4A13680B44136000
:105AB0000B4A13680B44136058B10546FFF792FF79
:105AC000074A13681B1A136021462846FFF794FF04
:105AD00038BD0846FFF7D6FEFAE700BF48B80020F9
